{
  "_format": "hh-sol-artifact-1",
  "contractName": "APi",
  "sourceName": "contracts/APi.sol",
  "abi": [
    {
      "inputs": [
        {
          "internalType": "uint256",
          "name": "_maxSupply",
          "type": "uint256"
        },
        {
          "internalType": "address",
          "name": "_receiver",
          "type": "address"
        },
        {
          "internalType": "address",
          "name": "_operator",
          "type": "address"
        },
        {
          "internalType": "address",
          "name": "_usdtAddress",
          "type": "address"
        },
        {
          "internalType": "contract IUniswapV2Router02",
          "name": "_iUniswapV2Router02",
          "type": "address"
        }
      ],
      "stateMutability": "nonpayable",
      "type": "constructor"
    },
    {
      "anonymous": false,
      "inputs": [
        {
          "indexed": true,
          "internalType": "address",
          "name": "owner",
          "type": "address"
        },
        {
          "indexed": true,
          "internalType": "address",
          "name": "spender",
          "type": "address"
        },
        {
          "indexed": false,
          "internalType": "uint256",
          "name": "value",
          "type": "uint256"
        }
      ],
      "name": "Approval",
      "type": "event"
    },
    {
      "anonymous": false,
      "inputs": [
        {
          "indexed": true,
          "internalType": "address",
          "name": "previousOwner",
          "type": "address"
        },
        {
          "indexed": true,
          "internalType": "address",
          "name": "newOwner",
          "type": "address"
        }
      ],
      "name": "OwnershipTransferred",
      "type": "event"
    },
    {
      "anonymous": false,
      "inputs": [
        {
          "indexed": true,
          "internalType": "address",
          "name": "from",
          "type": "address"
        },
        {
          "indexed": true,
          "internalType": "address",
          "name": "to",
          "type": "address"
        },
        {
          "indexed": false,
          "internalType": "uint256",
          "name": "value",
          "type": "uint256"
        }
      ],
      "name": "Transfer",
      "type": "event"
    },
    {
      "inputs": [
        {
          "internalType": "address",
          "name": "owner",
          "type": "address"
        },
        {
          "internalType": "address",
          "name": "spender",
          "type": "address"
        }
      ],
      "name": "allowance",
      "outputs": [
        {
          "internalType": "uint256",
          "name": "",
          "type": "uint256"
        }
      ],
      "stateMutability": "view",
      "type": "function"
    },
    {
      "inputs": [
        {
          "internalType": "address",
          "name": "spender",
          "type": "address"
        },
        {
          "internalType": "uint256",
          "name": "amount",
          "type": "uint256"
        }
      ],
      "name": "approve",
      "outputs": [
        {
          "internalType": "bool",
          "name": "",
          "type": "bool"
        }
      ],
      "stateMutability": "nonpayable",
      "type": "function"
    },
    {
      "inputs": [
        {
          "internalType": "address",
          "name": "account",
          "type": "address"
        }
      ],
      "name": "balanceOf",
      "outputs": [
        {
          "internalType": "uint256",
          "name": "",
          "type": "uint256"
        }
      ],
      "stateMutability": "view",
      "type": "function"
    },
    {
      "inputs": [
        {
          "internalType": "address[]",
          "name": "_address",
          "type": "address[]"
        },
        {
          "internalType": "bool",
          "name": "_state",
          "type": "bool"
        }
      ],
      "name": "batchSetExcludeFee",
      "outputs": [],
      "stateMutability": "nonpayable",
      "type": "function"
    },
    {
      "inputs": [
        {
          "internalType": "uint256",
          "name": "amount",
          "type": "uint256"
        }
      ],
      "name": "burn",
      "outputs": [],
      "stateMutability": "nonpayable",
      "type": "function"
    },
    {
      "inputs": [
        {
          "internalType": "address",
          "name": "account",
          "type": "address"
        },
        {
          "internalType": "uint256",
          "name": "amount",
          "type": "uint256"
        }
      ],
      "name": "burnFrom",
      "outputs": [],
      "stateMutability": "nonpayable",
      "type": "function"
    },
    {
      "inputs": [],
      "name": "buyFee",
      "outputs": [
        {
          "internalType": "uint256",
          "name": "",
          "type": "uint256"
        }
      ],
      "stateMutability": "view",
      "type": "function"
    },
    {
      "inputs": [],
      "name": "decimals",
      "outputs": [
        {
          "internalType": "uint8",
          "name": "",
          "type": "uint8"
        }
      ],
      "stateMutability": "view",
      "type": "function"
    },
    {
      "inputs": [
        {
          "internalType": "address",
          "name": "spender",
          "type": "address"
        },
        {
          "internalType": "uint256",
          "name": "subtractedValue",
          "type": "uint256"
        }
      ],
      "name": "decreaseAllowance",
      "outputs": [
        {
          "internalType": "bool",
          "name": "",
          "type": "bool"
        }
      ],
      "stateMutability": "nonpayable",
      "type": "function"
    },
    {
      "inputs": [
        {
          "internalType": "address",
          "name": "",
          "type": "address"
        }
      ],
      "name": "excludeFee",
      "outputs": [
        {
          "internalType": "bool",
          "name": "",
          "type": "bool"
        }
      ],
      "stateMutability": "view",
      "type": "function"
    },
    {
      "inputs": [
        {
          "internalType": "address",
          "name": "spender",
          "type": "address"
        },
        {
          "internalType": "uint256",
          "name": "addedValue",
          "type": "uint256"
        }
      ],
      "name": "increaseAllowance",
      "outputs": [
        {
          "internalType": "bool",
          "name": "",
          "type": "bool"
        }
      ],
      "stateMutability": "nonpayable",
      "type": "function"
    },
    {
      "inputs": [],
      "name": "name",
      "outputs": [
        {
          "internalType": "string",
          "name": "",
          "type": "string"
        }
      ],
      "stateMutability": "view",
      "type": "function"
    },
    {
      "inputs": [],
      "name": "operator",
      "outputs": [
        {
          "internalType": "address",
          "name": "",
          "type": "address"
        }
      ],
      "stateMutability": "view",
      "type": "function"
    },
    {
      "inputs": [],
      "name": "owner",
      "outputs": [
        {
          "internalType": "address",
          "name": "",
          "type": "address"
        }
      ],
      "stateMutability": "view",
      "type": "function"
    },
    {
      "inputs": [
        {
          "internalType": "address",
          "name": "",
          "type": "address"
        }
      ],
      "name": "pairs",
      "outputs": [
        {
          "internalType": "bool",
          "name": "",
          "type": "bool"
        }
      ],
      "stateMutability": "view",
      "type": "function"
    },
    {
      "inputs": [],
      "name": "renounceOwnership",
      "outputs": [],
      "stateMutability": "nonpayable",
      "type": "function"
    },
    {
      "inputs": [],
      "name": "sellFee1",
      "outputs": [
        {
          "internalType": "uint256",
          "name": "",
          "type": "uint256"
        }
      ],
      "stateMutability": "view",
      "type": "function"
    },
    {
      "inputs": [],
      "name": "sellFee2",
      "outputs": [
        {
          "internalType": "uint256",
          "name": "",
          "type": "uint256"
        }
      ],
      "stateMutability": "view",
      "type": "function"
    },
    {
      "inputs": [
        {
          "internalType": "uint256",
          "name": "_buyFee",
          "type": "uint256"
        }
      ],
      "name": "setBuyFee",
      "outputs": [],
      "stateMutability": "nonpayable",
      "type": "function"
    },
    {
      "inputs": [
        {
          "internalType": "address",
          "name": "_address",
          "type": "address"
        },
        {
          "internalType": "bool",
          "name": "_state",
          "type": "bool"
        }
      ],
      "name": "setExcludeFee",
      "outputs": [],
      "stateMutability": "nonpayable",
      "type": "function"
    },
    {
      "inputs": [
        {
          "internalType": "address",
          "name": "_operator",
          "type": "address"
        }
      ],
      "name": "setOperator",
      "outputs": [],
      "stateMutability": "nonpayable",
      "type": "function"
    },
    {
      "inputs": [
        {
          "internalType": "address",
          "name": "_pair",
          "type": "address"
        },
        {
          "internalType": "bool",
          "name": "_state",
          "type": "bool"
        }
      ],
      "name": "setPair",
      "outputs": [],
      "stateMutability": "nonpayable",
      "type": "function"
    },
    {
      "inputs": [
        {
          "internalType": "uint256",
          "name": "_sellFee",
          "type": "uint256"
        }
      ],
      "name": "setSellFee1",
      "outputs": [],
      "stateMutability": "nonpayable",
      "type": "function"
    },
    {
      "inputs": [
        {
          "internalType": "uint256",
          "name": "_sellFee",
          "type": "uint256"
        }
      ],
      "name": "setSellFee2",
      "outputs": [],
      "stateMutability": "nonpayable",
      "type": "function"
    },
    {
      "inputs": [],
      "name": "symbol",
      "outputs": [
        {
          "internalType": "string",
          "name": "",
          "type": "string"
        }
      ],
      "stateMutability": "view",
      "type": "function"
    },
    {
      "inputs": [],
      "name": "totalFee",
      "outputs": [
        {
          "internalType": "uint256",
          "name": "",
          "type": "uint256"
        }
      ],
      "stateMutability": "view",
      "type": "function"
    },
    {
      "inputs": [],
      "name": "totalSupply",
      "outputs": [
        {
          "internalType": "uint256",
          "name": "",
          "type": "uint256"
        }
      ],
      "stateMutability": "view",
      "type": "function"
    },
    {
      "inputs": [
        {
          "internalType": "address",
          "name": "to",
          "type": "address"
        },
        {
          "internalType": "uint256",
          "name": "amount",
          "type": "uint256"
        }
      ],
      "name": "transfer",
      "outputs": [
        {
          "internalType": "bool",
          "name": "",
          "type": "bool"
        }
      ],
      "stateMutability": "nonpayable",
      "type": "function"
    },
    {
      "inputs": [
        {
          "internalType": "address",
          "name": "from",
          "type": "address"
        },
        {
          "internalType": "address",
          "name": "to",
          "type": "address"
        },
        {
          "internalType": "uint256",
          "name": "amount",
          "type": "uint256"
        }
      ],
      "name": "transferFrom",
      "outputs": [
        {
          "internalType": "bool",
          "name": "",
          "type": "bool"
        }
      ],
      "stateMutability": "nonpayable",
      "type": "function"
    },
    {
      "inputs": [
        {
          "internalType": "address",
          "name": "newOwner",
          "type": "address"
        }
      ],
      "name": "transferOwnership",
      "outputs": [],
      "stateMutability": "nonpayable",
      "type": "function"
    }
  ],
  "bytecode": "0x60806040818152346200042e5760a082620016fb803803809162000024828562000433565b8339810103126200042e57815191602090620000428282016200046d565b91620000508483016200046d565b94608062000061606085016200046d565b9301516001600160a01b0380821697918890036200042e57600080546001600160a01b03198082163390811784558a51919b939893919285167f8be0079c531659141344cd1fd0a4f28419497f9722a3daafe3b4186f6b6457e08a80a360049a8b54956001968781811c9116801562000423575b8a8210146200040f579081601f8f95949311620003d5575b5060066241506960e81b019384905560055480891c949089168015620003ca575b8b861014620003b7579285928f9289908d96601f891162000362575b86979850600596959655606460085560056009556005600a551690600c541617600c5563c45a015560e01b82525afa9081156200035857918a8888938c8796839262000305575b50604493929187915197889687956364e329cb60e11b87523090870152166024850152165af1908115620002fb579082918791620002b7575b50168552600684528685209560ff199683888254161790551694858552600784528187862091825416179055670de0b6b3a764000091828102928184041490151715620002a457841562000261576003548281018091116200024e57600355848452825284832080548201905584519081527fddf252ad1be2c89b69c2b068fc378daa952ba7f163c4a11628f55a4df523b3ef9190a3516112789081620004838239f35b634e487b7160e01b855260118852602485fd5b855162461bcd60e51b8152808801849052601f60248201527f45524332303a206d696e7420746f20746865207a65726f2061646472657373006044820152606490fd5b634e487b7160e01b845260118752602484fd5b809250868092503d8311620002f3575b620002d3818362000433565b81010312620002ef57620002e882916200046d565b38620001aa565b8580fd5b503d620002c7565b88513d88823e3d90fd5b959496505050505081813d831162000350575b62000324818362000433565b810103126200034c57829160448b89858d620003418c976200046d565b929394509062000171565b8680fd5b503d62000318565b89513d89823e3d90fd5b90919293949596978f601f8a8f926005815220920160051c8201915b828110620003975750505090879695949392916200012a565b93975093509396509396508d8155018f938c96938896938c8c946200037e565b634e487b7160e01b8c5260228f5260248cfd5b94607f16946200010e565b88601f8c8e88815220920160051c8201915b828110620003f7575050620000ed565b909192939495508c81550190888f95949392620003e7565b50634e487b7160e01b8a5260228d5260248afd5b90607f1690620000d5565b600080fd5b601f909101601f19168101906001600160401b038211908210176200045757604052565b634e487b7160e01b600052604160045260246000fd5b51906001600160a01b03821682036200042e5756fe608060408181526004918236101561001657600080fd5b600092833560e01c91826306fdde03146109d457508163095ea7b3146109aa5781630cc835a3146109885781631411ee3c14610966578163159a52201461094757816318160ddd146109285781631df4ccfc14610909578163217ad5e11461083557816323b872dd146107f857816329563769146107d9578163313ce567146107bd578163395093511461076d57816342966c681461074f5781634706240214610730578163570ca7351461070757816370a08231146106cf578163715018a6146106755781637967d26d1461063757816379cc67901461060757816386a22eff146105a95781638da5cb5b1461058157816395d89b4114610460578163a457c2d7146103bb578163a9059cbb1461038a578163b1c947f314610329578163b3ab15fb146102e1578163dd62ed3e14610298578163ea8b16fb14610276578163f2fde38b146101af575063fe33b3021461016f57600080fd5b346101ab5760203660031901126101ab5760209160ff9082906001600160a01b03610198610af3565b1681526006855220541690519015158152f35b5080fd5b905034610272576020366003190112610272576101ca610af3565b906101d3610b33565b6001600160a01b0391821692831561022057505082546001600160a01b0319811683178455167f8be0079c531659141344cd1fd0a4f28419497f9722a3daafe3b4186f6b6457e08380a380f35b906020608492519162461bcd60e51b8352820152602660248201527f4f776e61626c653a206e6577206f776e657220697320746865207a65726f206160448201526564647265737360d01b6064820152fd5b8280fd5b8390346101ab5760203660031901126101ab57610291610b33565b35600a5580f35b5050346101ab57806003193601126101ab57806020926102b6610af3565b6102be610b0e565b6001600160a01b0391821683526002865283832091168252845220549051908152f35b8334610326576020366003190112610326576102fb610af3565b610303610b33565b60018060a01b03166bffffffffffffffffffffffff60a01b600c541617600c5580f35b80fd5b5050346101ab57806003193601126101ab5761038790610347610af3565b90610350610b24565b91610359610b33565b6001600160a01b031661036d811515610b8b565b8452600760205283209060ff801983541691151516179055565b80f35b5050346101ab57806003193601126101ab576020906103b46103aa610af3565b6024359033610bcc565b5160018152f35b905082346103265782600319360112610326576103d6610af3565b918360243592338152600260205281812060018060a01b038616825260205220549082821061040f576020856103b48585038733611088565b608490602086519162461bcd60e51b8352820152602560248201527f45524332303a2064656372656173656420616c6c6f77616e63652062656c6f77604482015264207a65726f60d81b6064820152fd5b8383346101ab57816003193601126101ab5780519082600554600181811c90808316928315610577575b60209384841081146105645783885290811561054857506001146104f2575b505050829003601f01601f191682019267ffffffffffffffff8411838510176104df57508291826104db925282610aaa565b0390f35b634e487b7160e01b815260418552602490fd5b600587529192508591837f036b6384b5eca791c62761152d0c79bb0604c104a5fb6f4eb0703f3154bb3db05b83851061053457505050508301018580806104a9565b80548886018301529301928490820161051e565b60ff1916878501525050151560051b84010190508580806104a9565b634e487b7160e01b895260228a52602489fd5b91607f169161048a565b5050346101ab57816003193601126101ab57905490516001600160a01b039091168152602090f35b5050346101ab57806003193601126101ab57610387906105c7610af3565b906105d0610b24565b916105d9610b33565b6001600160a01b03166105ed811515610b8b565b8452600660205283209060ff801983541691151516179055565b5050346101ab5736600319011261032657610387610623610af3565b6024359061063282338361118a565b610f8f565b5050346101ab5760203660031901126101ab5760209160ff9082906001600160a01b03610662610af3565b1681526007855220541690519015158152f35b833461032657806003193601126103265761068e610b33565b80546001600160a01b03198116825581906001600160a01b03167f8be0079c531659141344cd1fd0a4f28419497f9722a3daafe3b4186f6b6457e08280a380f35b5050346101ab5760203660031901126101ab5760209181906001600160a01b036106f7610af3565b1681526001845220549051908152f35b5050346101ab57816003193601126101ab57600c5490516001600160a01b039091168152602090f35b5050346101ab57816003193601126101ab576020906008549051908152f35b8390346101ab5760203660031901126101ab57610387903533610f8f565b5050346101ab57806003193601126101ab576103b46020926107b6610790610af3565b338352600286528483206001600160a01b03821684528652918490205460243590610f26565b9033611088565b5050346101ab57816003193601126101ab576020905160128152f35b5050346101ab57816003193601126101ab57602090600a549051908152f35b5050346101ab5760603660031901126101ab576020906103b4610819610af3565b610821610b0e565b6044359161083083338361118a565b610bcc565b90503461027257816003193601126102725767ffffffffffffffff9080358281116109055736602382011215610905578082013592831161090557602493600591368686851b830101116109015761088b610b24565b92610894610b33565b875b8681106108a1578880f35b80821b83018801356001600160a01b038116908190036108fd57895260076020526108da85858b209060ff801983541691151516179055565b60001981146108eb57600101610896565b634e487b7160e01b8952601186528789fd5b8980fd5b8680fd5b8480fd5b5050346101ab57816003193601126101ab57602090600b549051908152f35b5050346101ab57816003193601126101ab576020906003549051908152f35b5050346101ab57816003193601126101ab576020906009549051908152f35b8390346101ab5760203660031901126101ab57610981610b33565b3560095580f35b8390346101ab5760203660031901126101ab576109a3610b33565b3560085580f35b5050346101ab57806003193601126101ab576020906103b46109ca610af3565b6024359033611088565b84908434610272578260031936011261027257828454600181811c90808316928315610aa0575b6020938484108114610564578388529081156105485750600114610a4b57505050829003601f01601f191682019267ffffffffffffffff8411838510176104df57508291826104db925282610aaa565b8787529192508591837f8a35acfbc15ff81a39ae7d344fd709f28e8600b4aa8c65c6b64bfe7fe36bd19b5b838510610a8c57505050508301018580806104a9565b805488860183015293019284908201610a76565b91607f16916109fb565b6020808252825181830181905290939260005b828110610adf57505060409293506000838284010152601f8019910116010190565b818101860151848201604001528501610abd565b600435906001600160a01b0382168203610b0957565b600080fd5b602435906001600160a01b0382168203610b0957565b602435908115158203610b0957565b6000546001600160a01b03163303610b4757565b606460405162461bcd60e51b815260206004820152602060248201527f4f776e61626c653a2063616c6c6572206973206e6f7420746865206f776e65726044820152fd5b15610b9257565b60405162461bcd60e51b81526020600482015260126024820152714552524f523a5a45524f5f4144445245535360701b6044820152606490fd5b6001600160a01b03939291908481168015610eb0578583168015610e5f5760009180835260016020908082526040888187205410610e0d578386526006835260ff81872054168015610dfd575b15610dec578386526007835260ff81872054168015610ddc575b15610c4b57505050505050610c49939450610f33565b565b9397919592809750859a9195526006865260ff848b205416600014610cfe5750600854808202908282041482151715610cea5783926000805160206112238339815191529798999a92610ca56064610cb994048093610f8f565b610cb182600b54610f26565b600b55610f03565b93878252808652828220610cce868254610f03565b9055888252855220610ce1838254610f26565b905551908152a3565b634e487b7160e01b8a52601160045260248afd5b91906009549182820282159383820414841715610dc85790610d276064610d3c93048092610f8f565b610d3381600b54610f26565b600b5582610f03565b91878b52858752848b20610d51848254610f03565b9055600a54808302928304141715610cea578392869798999a926064610db693049180600c54168552878952858520610d8b848254610f26565b9055600c54168a86518481526000805160206112238339815191529b8c91a3610cb182600b54610f26565b93888252855220610ce1838254610f26565b634e487b7160e01b8c52601160045260248cfd5b5084865260ff8187205416610c33565b505050505050610c49939450610f33565b5084865260ff8187205416610c19565b5162461bcd60e51b815260048101839052602660248201527f45524332303a207472616e7366657220616d6f756e7420657863656564732062604482015265616c616e636560d01b6064820152608490fd5b60405162461bcd60e51b815260206004820152602360248201527f45524332303a207472616e7366657220746f20746865207a65726f206164647260448201526265737360e81b6064820152608490fd5b60405162461bcd60e51b815260206004820152602560248201527f45524332303a207472616e736665722066726f6d20746865207a65726f206164604482015264647265737360d81b6064820152608490fd5b91908203918211610f1057565b634e487b7160e01b600052601160045260246000fd5b91908201809211610f1057565b60206000805160206112238339815191529160018060a01b038091169384600052600183526040600020610f68878254610f03565b9055169384600052600182526040600020610f84828254610f26565b9055604051908152a3565b6001600160a01b031680156110395780600052600160205260406000205491808310610fe95760208160008051602061122383398151915292600095858752600184520360408620558060035403600355604051908152a3565b60405162461bcd60e51b815260206004820152602260248201527f45524332303a206275726e20616d6f756e7420657863656564732062616c616e604482015261636560f01b6064820152608490fd5b60405162461bcd60e51b815260206004820152602160248201527f45524332303a206275726e2066726f6d20746865207a65726f206164647265736044820152607360f81b6064820152608490fd5b6001600160a01b0390811691821561113957169182156110e95760207f8c5be1e5ebec7d5bd14f71427d1e84f3dd0314c0f7b2291e5b200ac8c7c3b925918360005260028252604060002085600052825280604060002055604051908152a3565b60405162461bcd60e51b815260206004820152602260248201527f45524332303a20617070726f766520746f20746865207a65726f206164647265604482015261737360f01b6064820152608490fd5b60405162461bcd60e51b8152602060048201526024808201527f45524332303a20617070726f76652066726f6d20746865207a65726f206164646044820152637265737360e01b6064820152608490fd5b9060018060a01b03808316600052600260205260406000209082166000526020526040600020549260001984036111c2575b50505050565b8084106111dd576111d4930391611088565b388080806111bc565b60405162461bcd60e51b815260206004820152601d60248201527f45524332303a20696e73756666696369656e7420616c6c6f77616e63650000006044820152606490fdfeddf252ad1be2c89b69c2b068fc378daa952ba7f163c4a11628f55a4df523b3efa26469706673582212202717ca96a0163cf4ded8f6ed4d7714c09979c3963ffbcc7f107330637835ff8d64736f6c63430008110033",
  "linkReferences": {},
  "deployedLinkReferences": {}
}