{
  "_format": "hh-sol-artifact-1",
  "contractName": "StarMarket",
  "sourceName": "contracts/StarMarket.sol",
  "abi": [
    {
      "inputs": [],
      "stateMutability": "nonpayable",
      "type": "constructor"
    },
    {
      "anonymous": false,
      "inputs": [
        {
          "indexed": false,
          "internalType": "address",
          "name": "previousAdmin",
          "type": "address"
        },
        {
          "indexed": false,
          "internalType": "address",
          "name": "newAdmin",
          "type": "address"
        }
      ],
      "name": "AdminChanged",
      "type": "event"
    },
    {
      "anonymous": false,
      "inputs": [
        {
          "indexed": true,
          "internalType": "address",
          "name": "beacon",
          "type": "address"
        }
      ],
      "name": "BeaconUpgraded",
      "type": "event"
    },
    {
      "anonymous": false,
      "inputs": [
        {
          "indexed": false,
          "internalType": "address",
          "name": "caller",
          "type": "address"
        },
        {
          "indexed": false,
          "internalType": "uint256",
          "name": "dogeAmount",
          "type": "uint256"
        },
        {
          "indexed": false,
          "internalType": "uint256",
          "name": "order",
          "type": "uint256"
        },
        {
          "indexed": false,
          "internalType": "uint256[7]",
          "name": "",
          "type": "uint256[7]"
        }
      ],
      "name": "BuyStarLevel",
      "type": "event"
    },
    {
      "anonymous": false,
      "inputs": [
        {
          "indexed": false,
          "internalType": "uint8",
          "name": "version",
          "type": "uint8"
        }
      ],
      "name": "Initialized",
      "type": "event"
    },
    {
      "anonymous": false,
      "inputs": [
        {
          "indexed": true,
          "internalType": "bytes32",
          "name": "role",
          "type": "bytes32"
        },
        {
          "indexed": true,
          "internalType": "bytes32",
          "name": "previousAdminRole",
          "type": "bytes32"
        },
        {
          "indexed": true,
          "internalType": "bytes32",
          "name": "newAdminRole",
          "type": "bytes32"
        }
      ],
      "name": "RoleAdminChanged",
      "type": "event"
    },
    {
      "anonymous": false,
      "inputs": [
        {
          "indexed": true,
          "internalType": "bytes32",
          "name": "role",
          "type": "bytes32"
        },
        {
          "indexed": true,
          "internalType": "address",
          "name": "account",
          "type": "address"
        },
        {
          "indexed": true,
          "internalType": "address",
          "name": "sender",
          "type": "address"
        }
      ],
      "name": "RoleGranted",
      "type": "event"
    },
    {
      "anonymous": false,
      "inputs": [
        {
          "indexed": true,
          "internalType": "bytes32",
          "name": "role",
          "type": "bytes32"
        },
        {
          "indexed": true,
          "internalType": "address",
          "name": "account",
          "type": "address"
        },
        {
          "indexed": true,
          "internalType": "address",
          "name": "sender",
          "type": "address"
        }
      ],
      "name": "RoleRevoked",
      "type": "event"
    },
    {
      "anonymous": false,
      "inputs": [
        {
          "indexed": true,
          "internalType": "address",
          "name": "implementation",
          "type": "address"
        }
      ],
      "name": "Upgraded",
      "type": "event"
    },
    {
      "inputs": [],
      "name": "DEFAULT_ADMIN_ROLE",
      "outputs": [
        {
          "internalType": "bytes32",
          "name": "",
          "type": "bytes32"
        }
      ],
      "stateMutability": "view",
      "type": "function"
    },
    {
      "inputs": [],
      "name": "DOMAIN_SEPARATOR",
      "outputs": [
        {
          "internalType": "bytes32",
          "name": "",
          "type": "bytes32"
        }
      ],
      "stateMutability": "view",
      "type": "function"
    },
    {
      "inputs": [],
      "name": "MANAGE_ROLE",
      "outputs": [
        {
          "internalType": "bytes32",
          "name": "",
          "type": "bytes32"
        }
      ],
      "stateMutability": "view",
      "type": "function"
    },
    {
      "inputs": [
        {
          "internalType": "address",
          "name": "token",
          "type": "address"
        }
      ],
      "name": "balance",
      "outputs": [
        {
          "internalType": "uint256",
          "name": "",
          "type": "uint256"
        }
      ],
      "stateMutability": "view",
      "type": "function"
    },
    {
      "inputs": [
        {
          "internalType": "bytes32",
          "name": "role",
          "type": "bytes32"
        },
        {
          "internalType": "address[]",
          "name": "accounts",
          "type": "address[]"
        }
      ],
      "name": "batchGrantRole",
      "outputs": [],
      "stateMutability": "nonpayable",
      "type": "function"
    },
    {
      "inputs": [
        {
          "internalType": "bytes32",
          "name": "role",
          "type": "bytes32"
        },
        {
          "internalType": "address[]",
          "name": "accounts",
          "type": "address[]"
        }
      ],
      "name": "batchRevokeRole",
      "outputs": [],
      "stateMutability": "nonpayable",
      "type": "function"
    },
    {
      "inputs": [
        {
          "internalType": "bytes",
          "name": "data",
          "type": "bytes"
        }
      ],
      "name": "buyStarLevel",
      "outputs": [],
      "stateMutability": "payable",
      "type": "function"
    },
    {
      "inputs": [],
      "name": "buybackRatio",
      "outputs": [
        {
          "internalType": "uint256",
          "name": "",
          "type": "uint256"
        }
      ],
      "stateMutability": "view",
      "type": "function"
    },
    {
      "inputs": [],
      "name": "buybackShareAdd",
      "outputs": [
        {
          "internalType": "address",
          "name": "",
          "type": "address"
        }
      ],
      "stateMutability": "view",
      "type": "function"
    },
    {
      "inputs": [],
      "name": "buybackShareRatio",
      "outputs": [
        {
          "internalType": "uint256",
          "name": "",
          "type": "uint256"
        }
      ],
      "stateMutability": "view",
      "type": "function"
    },
    {
      "inputs": [],
      "name": "buybacklevelAdd",
      "outputs": [
        {
          "internalType": "address",
          "name": "",
          "type": "address"
        }
      ],
      "stateMutability": "view",
      "type": "function"
    },
    {
      "inputs": [],
      "name": "buybacklevelRatio",
      "outputs": [
        {
          "internalType": "uint256",
          "name": "",
          "type": "uint256"
        }
      ],
      "stateMutability": "view",
      "type": "function"
    },
    {
      "inputs": [],
      "name": "doge",
      "outputs": [
        {
          "internalType": "contract IERC20Upgradeable",
          "name": "",
          "type": "address"
        }
      ],
      "stateMutability": "view",
      "type": "function"
    },
    {
      "inputs": [],
      "name": "funSwitch",
      "outputs": [
        {
          "internalType": "bool",
          "name": "",
          "type": "bool"
        }
      ],
      "stateMutability": "view",
      "type": "function"
    },
    {
      "inputs": [
        {
          "internalType": "bytes32",
          "name": "role",
          "type": "bytes32"
        }
      ],
      "name": "getRoleAdmin",
      "outputs": [
        {
          "internalType": "bytes32",
          "name": "",
          "type": "bytes32"
        }
      ],
      "stateMutability": "view",
      "type": "function"
    },
    {
      "inputs": [
        {
          "internalType": "bytes32",
          "name": "role",
          "type": "bytes32"
        },
        {
          "internalType": "uint256",
          "name": "index",
          "type": "uint256"
        }
      ],
      "name": "getRoleMember",
      "outputs": [
        {
          "internalType": "address",
          "name": "",
          "type": "address"
        }
      ],
      "stateMutability": "view",
      "type": "function"
    },
    {
      "inputs": [
        {
          "internalType": "bytes32",
          "name": "role",
          "type": "bytes32"
        }
      ],
      "name": "getRoleMemberCount",
      "outputs": [
        {
          "internalType": "uint256",
          "name": "",
          "type": "uint256"
        }
      ],
      "stateMutability": "view",
      "type": "function"
    },
    {
      "inputs": [
        {
          "internalType": "bytes32",
          "name": "role",
          "type": "bytes32"
        },
        {
          "internalType": "address",
          "name": "account",
          "type": "address"
        }
      ],
      "name": "grantRole",
      "outputs": [],
      "stateMutability": "nonpayable",
      "type": "function"
    },
    {
      "inputs": [
        {
          "internalType": "bytes32",
          "name": "role",
          "type": "bytes32"
        },
        {
          "internalType": "address",
          "name": "account",
          "type": "address"
        }
      ],
      "name": "hasRole",
      "outputs": [
        {
          "internalType": "bool",
          "name": "",
          "type": "bool"
        }
      ],
      "stateMutability": "view",
      "type": "function"
    },
    {
      "inputs": [
        {
          "internalType": "contract IERC20Upgradeable",
          "name": "_my",
          "type": "address"
        },
        {
          "internalType": "contract IERC20Upgradeable",
          "name": "_doge",
          "type": "address"
        },
        {
          "internalType": "contract IERC20Upgradeable",
          "name": "_usdt",
          "type": "address"
        },
        {
          "internalType": "address[]",
          "name": "rewardAdds",
          "type": "address[]"
        },
        {
          "internalType": "contract IUniswapV2Router02",
          "name": "_pancakeRouter",
          "type": "address"
        },
        {
          "internalType": "address",
          "name": "_signer",
          "type": "address"
        }
      ],
      "name": "initialize",
      "outputs": [],
      "stateMutability": "nonpayable",
      "type": "function"
    },
    {
      "inputs": [],
      "name": "my",
      "outputs": [
        {
          "internalType": "contract IERC20Upgradeable",
          "name": "",
          "type": "address"
        }
      ],
      "stateMutability": "view",
      "type": "function"
    },
    {
      "inputs": [],
      "name": "nodeRatio",
      "outputs": [
        {
          "internalType": "uint256",
          "name": "",
          "type": "uint256"
        }
      ],
      "stateMutability": "view",
      "type": "function"
    },
    {
      "inputs": [],
      "name": "nodeRewardAdd",
      "outputs": [
        {
          "internalType": "address",
          "name": "",
          "type": "address"
        }
      ],
      "stateMutability": "view",
      "type": "function"
    },
    {
      "inputs": [
        {
          "internalType": "address",
          "name": "",
          "type": "address"
        }
      ],
      "name": "nonces",
      "outputs": [
        {
          "internalType": "uint256",
          "name": "",
          "type": "uint256"
        }
      ],
      "stateMutability": "view",
      "type": "function"
    },
    {
      "inputs": [],
      "name": "pancakeRouter",
      "outputs": [
        {
          "internalType": "contract IUniswapV2Router02",
          "name": "",
          "type": "address"
        }
      ],
      "stateMutability": "view",
      "type": "function"
    },
    {
      "inputs": [
        {
          "internalType": "uint256",
          "name": "",
          "type": "uint256"
        }
      ],
      "name": "prices",
      "outputs": [
        {
          "internalType": "uint256",
          "name": "",
          "type": "uint256"
        }
      ],
      "stateMutability": "view",
      "type": "function"
    },
    {
      "inputs": [],
      "name": "proxiableUUID",
      "outputs": [
        {
          "internalType": "bytes32",
          "name": "",
          "type": "bytes32"
        }
      ],
      "stateMutability": "view",
      "type": "function"
    },
    {
      "inputs": [
        {
          "internalType": "bytes32",
          "name": "role",
          "type": "bytes32"
        }
      ],
      "name": "queryRoles",
      "outputs": [
        {
          "internalType": "address[]",
          "name": "",
          "type": "address[]"
        }
      ],
      "stateMutability": "view",
      "type": "function"
    },
    {
      "inputs": [
        {
          "internalType": "bytes32",
          "name": "role",
          "type": "bytes32"
        },
        {
          "internalType": "address",
          "name": "account",
          "type": "address"
        }
      ],
      "name": "renounceRole",
      "outputs": [],
      "stateMutability": "nonpayable",
      "type": "function"
    },
    {
      "inputs": [
        {
          "internalType": "bytes32",
          "name": "role",
          "type": "bytes32"
        },
        {
          "internalType": "address",
          "name": "account",
          "type": "address"
        }
      ],
      "name": "revokeRole",
      "outputs": [],
      "stateMutability": "nonpayable",
      "type": "function"
    },
    {
      "inputs": [
        {
          "internalType": "uint256[]",
          "name": "ratios",
          "type": "uint256[]"
        }
      ],
      "name": "setBuybackRatio",
      "outputs": [],
      "stateMutability": "nonpayable",
      "type": "function"
    },
    {
      "inputs": [
        {
          "internalType": "address[]",
          "name": "rewardAdds",
          "type": "address[]"
        }
      ],
      "name": "setBuybackRewardAdd",
      "outputs": [],
      "stateMutability": "nonpayable",
      "type": "function"
    },
    {
      "inputs": [
        {
          "internalType": "contract IERC20Upgradeable",
          "name": "_doge",
          "type": "address"
        }
      ],
      "name": "setDoge",
      "outputs": [],
      "stateMutability": "nonpayable",
      "type": "function"
    },
    {
      "inputs": [
        {
          "internalType": "bool",
          "name": "_funSwitch",
          "type": "bool"
        }
      ],
      "name": "setFunSwitch",
      "outputs": [],
      "stateMutability": "nonpayable",
      "type": "function"
    },
    {
      "inputs": [
        {
          "internalType": "contract IERC20Upgradeable",
          "name": "_my",
          "type": "address"
        }
      ],
      "name": "setMy",
      "outputs": [],
      "stateMutability": "nonpayable",
      "type": "function"
    },
    {
      "inputs": [
        {
          "internalType": "uint256",
          "name": "starLevel",
          "type": "uint256"
        },
        {
          "internalType": "uint256",
          "name": "price",
          "type": "uint256"
        }
      ],
      "name": "setPrice",
      "outputs": [],
      "stateMutability": "nonpayable",
      "type": "function"
    },
    {
      "inputs": [
        {
          "internalType": "uint256[]",
          "name": "ratios",
          "type": "uint256[]"
        }
      ],
      "name": "setRatio",
      "outputs": [],
      "stateMutability": "nonpayable",
      "type": "function"
    },
    {
      "inputs": [
        {
          "internalType": "address[]",
          "name": "rewardAdds",
          "type": "address[]"
        }
      ],
      "name": "setRewardAdd",
      "outputs": [],
      "stateMutability": "nonpayable",
      "type": "function"
    },
    {
      "inputs": [
        {
          "internalType": "contract IUniswapV2Router02",
          "name": "_pancakeRouter",
          "type": "address"
        }
      ],
      "name": "setRouter",
      "outputs": [],
      "stateMutability": "nonpayable",
      "type": "function"
    },
    {
      "inputs": [
        {
          "internalType": "address",
          "name": "_signer",
          "type": "address"
        }
      ],
      "name": "setSigner",
      "outputs": [],
      "stateMutability": "nonpayable",
      "type": "function"
    },
    {
      "inputs": [
        {
          "internalType": "contract IERC20Upgradeable",
          "name": "_usdt",
          "type": "address"
        }
      ],
      "name": "setUsdt",
      "outputs": [],
      "stateMutability": "nonpayable",
      "type": "function"
    },
    {
      "inputs": [],
      "name": "sharePoolAdd",
      "outputs": [
        {
          "internalType": "address",
          "name": "",
          "type": "address"
        }
      ],
      "stateMutability": "view",
      "type": "function"
    },
    {
      "inputs": [],
      "name": "sharePoolRatio",
      "outputs": [
        {
          "internalType": "uint256",
          "name": "",
          "type": "uint256"
        }
      ],
      "stateMutability": "view",
      "type": "function"
    },
    {
      "inputs": [],
      "name": "signer",
      "outputs": [
        {
          "internalType": "address",
          "name": "",
          "type": "address"
        }
      ],
      "stateMutability": "view",
      "type": "function"
    },
    {
      "inputs": [],
      "name": "staticAdd",
      "outputs": [
        {
          "internalType": "address",
          "name": "",
          "type": "address"
        }
      ],
      "stateMutability": "view",
      "type": "function"
    },
    {
      "inputs": [],
      "name": "staticRatio",
      "outputs": [
        {
          "internalType": "uint256",
          "name": "",
          "type": "uint256"
        }
      ],
      "stateMutability": "view",
      "type": "function"
    },
    {
      "inputs": [
        {
          "internalType": "bytes4",
          "name": "interfaceId",
          "type": "bytes4"
        }
      ],
      "name": "supportsInterface",
      "outputs": [
        {
          "internalType": "bool",
          "name": "",
          "type": "bool"
        }
      ],
      "stateMutability": "view",
      "type": "function"
    },
    {
      "inputs": [],
      "name": "teamRewardAdd",
      "outputs": [
        {
          "internalType": "address",
          "name": "",
          "type": "address"
        }
      ],
      "stateMutability": "view",
      "type": "function"
    },
    {
      "inputs": [],
      "name": "teamRewardRatio",
      "outputs": [
        {
          "internalType": "uint256",
          "name": "",
          "type": "uint256"
        }
      ],
      "stateMutability": "view",
      "type": "function"
    },
    {
      "inputs": [
        {
          "internalType": "address",
          "name": "newImplementation",
          "type": "address"
        }
      ],
      "name": "upgradeTo",
      "outputs": [],
      "stateMutability": "nonpayable",
      "type": "function"
    },
    {
      "inputs": [
        {
          "internalType": "address",
          "name": "newImplementation",
          "type": "address"
        },
        {
          "internalType": "bytes",
          "name": "data",
          "type": "bytes"
        }
      ],
      "name": "upgradeToAndCall",
      "outputs": [],
      "stateMutability": "payable",
      "type": "function"
    },
    {
      "inputs": [],
      "name": "usdt",
      "outputs": [
        {
          "internalType": "contract IERC20Upgradeable",
          "name": "",
          "type": "address"
        }
      ],
      "stateMutability": "view",
      "type": "function"
    },
    {
      "inputs": [
        {
          "internalType": "address",
          "name": "to",
          "type": "address"
        },
        {
          "internalType": "uint256",
          "name": "amount",
          "type": "uint256"
        }
      ],
      "name": "withdrawBNB",
      "outputs": [],
      "stateMutability": "nonpayable",
      "type": "function"
    },
    {
      "inputs": [
        {
          "internalType": "address",
          "name": "token",
          "type": "address"
        },
        {
          "internalType": "address",
          "name": "to",
          "type": "address"
        },
        {
          "internalType": "uint256",
          "name": "amount",
          "type": "uint256"
        }
      ],
      "name": "withdrawErc20",
      "outputs": [],
      "stateMutability": "nonpayable",
      "type": "function"
    }
  ],
  "bytecode": "0x60a0604052306080523480156200001557600080fd5b506200002062000026565b620000e7565b600054610100900460ff1615620000935760405162461bcd60e51b815260206004820152602760248201527f496e697469616c697a61626c653a20636f6e747261637420697320696e697469604482015266616c697a696e6760c81b606482015260840160405180910390fd5b60005460ff90811614620000e5576000805460ff191660ff9081179091556040519081527f7f26b83ff96e1f2b6a682f133852f6798a09c465da95921460cefb38474024989060200160405180910390a15b565b608051613ba96200011f60003960008181610bcc01528181610c0c01528181610ecd01528181610f0d0152610fde0152613ba96000f3fe6080604052600436106103355760003560e01c80636c19e783116101ab578063bc31c1c1116100f7578063cfd24b1911610095578063dace40091161006f578063dace40091461099b578063dde34913146109ae578063e3d670d7146109c5578063f7d97577146109e557600080fd5b8063cfd24b1914610944578063d547741f14610964578063d8b7cb741461098457600080fd5b8063c21ebd07116100d1578063c21ebd07146108d1578063c75b4645146108f2578063ca15c87314610909578063caf97d941461092957600080fd5b8063bc31c1c114610863578063bd025a7914610891578063c0d78655146108b157600080fd5b80639010d07c11610164578063a97af1f21161013e578063a97af1f2146107eb578063b65e03a61461080b578063b91e31511461082c578063ba885fff1461084357600080fd5b80639010d07c1461079657806391d14854146107b6578063a217fddf146107d657600080fd5b80636c19e783146106d05780636f39feec146106f05780637e369188146107105780637ecebe001461073057806388fa43c81461075e5780638ececb5c1461077f57600080fd5b80633659cfe61161028557806351be0ec11161022357806358979bfe116101fd57806358979bfe1461064057806360a4b76a14610660578063620bb3ca146106825780636983bb99146106af57600080fd5b806351be0ec1146105eb57806352d1902d1461060b578063582b8f691461062057600080fd5b80634a3c386c1161025f5780634a3c386c146105805780634f0eb4c2146105a05780634f1ef286146105c15780634fea3528146105d457600080fd5b80633659cfe61461052057806346b5cb5914610540578063489939631461056057600080fd5b8063248a9ca3116102f25780632f48ab7d116102cc5780632f48ab7d146104a757806334809ee7146104c85780633644e515146104e957806336568abe1461050057600080fd5b8063248a9ca3146104365780632f188b5b146104665780632f2ff15d1461048757600080fd5b806301ffc9a71461033a57806305c670731461036f5780630f0cb966146103945780631593dee1146103d2578063216a270e146103f4578063238ac93314610415575b600080fd5b34801561034657600080fd5b5061035a610355366004613235565b610a05565b60405190151581526020015b60405180910390f35b34801561037b57600080fd5b506103866101665481565b604051908152602001610366565b3480156103a057600080fd5b5061015f546103ba9061010090046001600160a01b031681565b6040516001600160a01b039091168152602001610366565b3480156103de57600080fd5b506103f26103ed366004613274565b610a30565b005b34801561040057600080fd5b5061016b546103ba906001600160a01b031681565b34801561042157600080fd5b50610172546103ba906001600160a01b031681565b34801561044257600080fd5b506103866104513660046132b5565b60009081526065602052604090206001015490565b34801561047257600080fd5b50610168546103ba906001600160a01b031681565b34801561049357600080fd5b506103f26104a23660046132ce565b610b1a565b3480156104b357600080fd5b50610161546103ba906001600160a01b031681565b3480156104d457600080fd5b50610160546103ba906001600160a01b031681565b3480156104f557600080fd5b506103866101715481565b34801561050c57600080fd5b506103f261051b3660046132ce565b610b44565b34801561052c57600080fd5b506103f261053b3660046132fe565b610bc2565b34801561054c57600080fd5b506103f261055b366004613367565b610ca1565b34801561056c57600080fd5b506103f261057b3660046133b3565b610d09565b34801561058c57600080fd5b506103f261059b3660046133b3565b610db6565b3480156105ac57600080fd5b5061016a546103ba906001600160a01b031681565b6103f26105cf366004613498565b610ec3565b3480156105e057600080fd5b5061038661016c5481565b3480156105f757600080fd5b506103f26106063660046132fe565b610f8f565b34801561061757600080fd5b50610386610fd1565b34801561062c57600080fd5b506103f261063b3660046134f6565b611084565b34801561064c57600080fd5b506103f261065b3660046132fe565b6110b1565b34801561066c57600080fd5b50610386600080516020613b5483398151915281565b34801561068e57600080fd5b506106a261069d3660046132b5565b6110ed565b6040516103669190613557565b3480156106bb57600080fd5b50610169546103ba906001600160a01b031681565b3480156106dc57600080fd5b506103f26106eb3660046132fe565b61119c565b3480156106fc57600080fd5b506103f261070b366004613367565b6111d8565b34801561071c57600080fd5b506103f261072b36600461356a565b611240565b34801561073c57600080fd5b5061038661074b3660046132fe565b6101736020526000908152604090205481565b34801561076a57600080fd5b5061016f546103ba906001600160a01b031681565b34801561078b57600080fd5b506103866101655481565b3480156107a257600080fd5b506103ba6107b136600461360c565b611807565b3480156107c257600080fd5b5061035a6107d13660046132ce565b611826565b3480156107e257600080fd5b50610386600081565b3480156107f757600080fd5b506103f261080636600461362e565b611851565b34801561081757600080fd5b5061016e546103ba906001600160a01b031681565b34801561083857600080fd5b506103866101675481565b34801561084f57600080fd5b506103f261085e3660046133b3565b6118e6565b34801561086f57600080fd5b5061038661087e3660046132b5565b6101626020526000908152604090205481565b34801561089d57600080fd5b506103f26108ac3660046132fe565b6119b5565b3480156108bd57600080fd5b506103f26108cc3660046132fe565b6119f1565b3480156108dd57600080fd5b50610170546103ba906001600160a01b031681565b3480156108fe57600080fd5b506103866101645481565b34801561091557600080fd5b506103866109243660046132b5565b611a2d565b34801561093557600080fd5b5061015f5461035a9060ff1681565b34801561095057600080fd5b506103f261095f3660046133b3565b611a44565b34801561097057600080fd5b506103f261097f3660046132ce565b611ba5565b34801561099057600080fd5b506103866101635481565b6103f26109a936600461365a565b611bca565b3480156109ba57600080fd5b5061038661016d5481565b3480156109d157600080fd5b506103866109e03660046132fe565b612003565b3480156109f157600080fd5b506103f2610a0036600461360c565b612082565b60006001600160e01b03198216635a05180f60e01b1480610a2a5750610a2a826120ae565b92915050565b600080516020613b54833981519152610a48816120e3565b6040516370a0823160e01b81523060048201526000906001600160a01b038616906370a0823190602401602060405180830381865afa158015610a8f573d6000803e3d6000fd5b505050506040513d601f19601f82011682018060405250810190610ab391906136cc565b905082811015610aff5760405162461bcd60e51b815260206004820152601260248201527111549493d48e925394d551919250d251539560721b60448201526064015b60405180910390fd5b610b136001600160a01b03861685856120ed565b5050505050565b600082815260656020526040902060010154610b35816120e3565b610b3f8383612150565b505050565b6001600160a01b0381163314610bb45760405162461bcd60e51b815260206004820152602f60248201527f416363657373436f6e74726f6c3a2063616e206f6e6c792072656e6f756e636560448201526e103937b632b9903337b91039b2b63360891b6064820152608401610af6565b610bbe8282612172565b5050565b6001600160a01b037f0000000000000000000000000000000000000000000000000000000000000000163003610c0a5760405162461bcd60e51b8152600401610af6906136e5565b7f00000000000000000000000000000000000000000000000000000000000000006001600160a01b0316610c53600080516020613b0d833981519152546001600160a01b031690565b6001600160a01b031614610c795760405162461bcd60e51b8152600401610af690613731565b610c8281612194565b60408051600080825260208201909252610c9e918391906121ac565b50565b600083815260656020526040902060010154610cbc816120e3565b60005b82811015610b1357610cf785858584818110610cdd57610cdd61377d565b9050602002016020810190610cf291906132fe565b612150565b80610d01816137a9565b915050610cbf565b600080516020613b54833981519152610d21816120e3565b60028214610d715760405162461bcd60e51b815260206004820152601f60248201527f4572726f723a20726174696f6e73206c656e67746820696e636f7272656374006044820152606401610af6565b82826000818110610d8457610d8461377d565b602002919091013561016c555082826001818110610da457610da461377d565b602002919091013561016d5550505050565b600080516020613b54833981519152610dce816120e3565b60058214610e1e5760405162461bcd60e51b815260206004820152601f60248201527f4572726f723a20726174696f6e73206c656e67746820696e636f7272656374006044820152606401610af6565b82826000818110610e3157610e3161377d565b6020029190910135610163555082826001818110610e5157610e5161377d565b6020029190910135610164555082826002818110610e7157610e7161377d565b6020029190910135610165555082826003818110610e9157610e9161377d565b6020029190910135610166555082826004818110610eb157610eb161377d565b60200291909101356101675550505050565b6001600160a01b037f0000000000000000000000000000000000000000000000000000000000000000163003610f0b5760405162461bcd60e51b8152600401610af6906136e5565b7f00000000000000000000000000000000000000000000000000000000000000006001600160a01b0316610f54600080516020613b0d833981519152546001600160a01b031690565b6001600160a01b031614610f7a5760405162461bcd60e51b8152600401610af690613731565b610f8382612194565b610bbe828260016121ac565b600080516020613b54833981519152610fa7816120e3565b5061015f80546001600160a01b0390921661010002610100600160a81b0319909216919091179055565b6000306001600160a01b037f000000000000000000000000000000000000000000000000000000000000000016146110715760405162461bcd60e51b815260206004820152603860248201527f555550535570677261646561626c653a206d757374206e6f742062652063616c60448201527f6c6564207468726f7567682064656c656761746563616c6c00000000000000006064820152608401610af6565b50600080516020613b0d83398151915290565b600080516020613b5483398151915261109c816120e3565b5061015f805460ff1916911515919091179055565b600080516020613b548339815191526110c9816120e3565b5061016180546001600160a01b0319166001600160a01b0392909216919091179055565b606060006110fa83611a2d565b905060008167ffffffffffffffff811115611117576111176133f5565b604051908082528060200260200182016040528015611140578160200160208202803683370190505b50905060005b82811015611194576111588582611807565b82828151811061116a5761116a61377d565b6001600160a01b03909216602092830291909101909101528061118c816137a9565b915050611146565b509392505050565b600080516020613b548339815191526111b4816120e3565b5061017280546001600160a01b0319166001600160a01b0392909216919091179055565b6000838152606560205260409020600101546111f3816120e3565b60005b82811015610b135761122e858585848181106112145761121461377d565b905060200201602081019061122991906132fe565b612172565b80611238816137a9565b9150506111f6565b600054610100900460ff16158080156112605750600054600160ff909116105b8061127a5750303b15801561127a575060005460ff166001145b6112dd5760405162461bcd60e51b815260206004820152602e60248201527f496e697469616c697a61626c653a20636f6e747261637420697320616c72656160448201526d191e481a5b9a5d1a585b1a5e995960921b6064820152608401610af6565b6000805460ff191660011790558015611300576000805461ff0019166101001790555b611308612317565b611310612340565b611318612317565b611323600033612150565b61133b600080516020613b5483398151915233612150565b61015f80546001600160a01b03808b1661010002610100600160a81b03199092169190911790915561016080548983166001600160a01b031991821617909155610161805492891692909116919091179055610162602052645d21dba0007ff61987c9aed0045e23fa9dc39431e65f2e539c06326104393336bb7ee5513b4a5564ba43b740007f155836409e5d26526e47d89ac74876a79a7cbb23afb27a87ba13a73d51ace4be55650174876e80007fccbcdfd311f6d935565091d3de7fdc814ce5d5bb2338a9cd55bc8269bcf8e88f556502e90edd00007f462ca95cbe2f940b489690b1e049233bd61b15242328e4f9d6024e5031ead0b8556505d21dba00007f1ebecf720c21f0247efa309db4cd88dde42fd85cadc67e77c5623945d51da7435560066000819052650ba43b7400007f1e323b6be2982959511341a824c73f1b990ec8eba5b391b259f0b4d8fc6cc3f355602361016355601961016455600f61016555601461016655600561016755603261016c81905561016d5584146115125760405162461bcd60e51b815260206004820152602360248201527f4552524f523a205245574152442041444452455353204e554d20494e434f52526044820152621150d560ea1b6064820152608401610af6565b848460008181106115255761152561377d565b905060200201602081019061153a91906132fe565b61016880546001600160a01b0319166001600160a01b03929092169190911790558484600181811061156e5761156e61377d565b905060200201602081019061158391906132fe565b61016980546001600160a01b0319166001600160a01b0392909216919091179055848460028181106115b7576115b761377d565b90506020020160208101906115cc91906132fe565b61016a80546001600160a01b0319166001600160a01b0392909216919091179055848460038181106116005761160061377d565b905060200201602081019061161591906132fe565b61016b80546001600160a01b0319166001600160a01b0392909216919091179055848460048181106116495761164961377d565b905060200201602081019061165e91906132fe565b61016e80546001600160a01b0319166001600160a01b0392909216919091179055848460058181106116925761169261377d565b90506020020160208101906116a791906132fe565b61016f80546001600160a01b03199081166001600160a01b0393841617909155610170805482168684161790556101728054909116918416919091179055604080518082018252600a81526914dd185c93585c9ad95d60b21b6020918201528151808301835260018152603160f81b9082015281517f8b73c3c69bb8fe3d512ecc4cf759cc79239f7b179b0ffacaa9a75d522b39400f818301527ff139969fb0a8dd1092030877208ec1a1ae61cadbe9dc3bb3684f27cb2ad823fe818401527fc89efdaa54c0f20c7adf612882df0950f5a951637e0307cdcb4c672f298b8bc660608201524660808201523060a0808301919091528351808303909101815260c090910190925281519101206101715580156117fd576000805461ff0019169055604051600181527f7f26b83ff96e1f2b6a682f133852f6798a09c465da95921460cefb38474024989060200160405180910390a15b5050505050505050565b600082815260976020526040812061181f908361236f565b9392505050565b60009182526065602090815260408084206001600160a01b0393909316845291905290205460ff1690565b600080516020613b54833981519152611869816120e3565b3031828110156118b05760405162461bcd60e51b815260206004820152601260248201527111549493d48e925394d551919250d251539560721b6044820152606401610af6565b6040516001600160a01b0385169084156108fc029085906000818181858888f19350505050158015610b13573d6000803e3d6000fd5b600080516020613b548339815191526118fe816120e3565b6002821461191e5760405162461bcd60e51b8152600401610af6906137c2565b828260008181106119315761193161377d565b905060200201602081019061194691906132fe565b61016e80546001600160a01b0319166001600160a01b03929092169190911790558282600181811061197a5761197a61377d565b905060200201602081019061198f91906132fe565b61016f80546001600160a01b0319166001600160a01b0392909216919091179055505050565b600080516020613b548339815191526119cd816120e3565b5061016080546001600160a01b0319166001600160a01b0392909216919091179055565b600080516020613b54833981519152611a09816120e3565b5061017080546001600160a01b0319166001600160a01b0392909216919091179055565b6000818152609760205260408120610a2a9061237b565b600080516020613b54833981519152611a5c816120e3565b60048214611a7c5760405162461bcd60e51b8152600401610af6906137c2565b82826000818110611a8f57611a8f61377d565b9050602002016020810190611aa491906132fe565b61016880546001600160a01b0319166001600160a01b039290921691909117905582826001818110611ad857611ad861377d565b9050602002016020810190611aed91906132fe565b61016980546001600160a01b0319166001600160a01b039290921691909117905582826002818110611b2157611b2161377d565b9050602002016020810190611b3691906132fe565b61016a80546001600160a01b0319166001600160a01b039290921691909117905582826003818110611b6a57611b6a61377d565b9050602002016020810190611b7f91906132fe565b61016b80546001600160a01b0319166001600160a01b0392909216919091179055505050565b600082815260656020526040902060010154611bc0816120e3565b610b3f8383612172565b611bd2612385565b61015f5460ff1615611c1c5760405162461bcd60e51b81526020600482015260136024820152724552524f523a204e4f5420534552564943455360681b6044820152606401610af6565b6000808080808080611c30888a018a613804565b9650965096509650965096509650336001600160a01b0316876001600160a01b031614611c945760405162461bcd60e51b815260206004820152601260248201527122a92927a91d24a72b20a624a22faaa9a2a960711b6044820152606401610af6565b33600090815261017360205260409020548314611ce95760405162461bcd60e51b81526020600482015260136024820152724552524f523a494e56414c49445f4e4f4e434560681b6044820152606401610af6565b81421115611d2b5760405162461bcd60e51b815260206004820152600f60248201526e11549493d48e88151253514813d555608a1b6044820152606401610af6565b60008681526101626020526040902054851015611d805760405162461bcd60e51b815260206004820152601360248201527211549493d50e88125b9cdd59999a58da595b9d606a1b6044820152606401610af6565b6000806000611d8e846123de565b925092509250600061017154604051602001611e28907f5065726d6974286164647265737320757365722c75696e74323536207374617281527f4c6576656c2c75696e7432353620646f6765416d6f756e742c75696e7432353660208201527f206f726465722c75696e74323536206e6f6e63652c75696e7432353620646561604082015265646c696e652960d01b606082015260660190565b60408051808303601f190181528282528051602091820120818401526001600160a01b038f1683830152606083018e9052608083018d905260a083018c905260c083018b905260e08084018b9052825180850390910181526101008401909252815191012061190160f01b6101208301526101228201929092526101428101919091526101620160408051601f1981840301815282825280516020918201206000845290830180835281905260ff8716918301919091526060820185905260808201849052915060019060a0016020604051602081039080840390855afa158015611f17573d6000803e3d6000fd5b5050604051601f190151610172546001600160a01b039081169116149050611f795760405162461bcd60e51b815260206004820152601560248201527411549493d48e9253959053125117d49154555154d5605a1b6044820152606401610af6565b6001600160a01b038b16600090815261017360205260408120805491611f9e836137a9565b91905055506000611fae8a612450565b90507f282e3cd2c29035ee769efa1368ee937a68e8919b4da65b436cb7b3c0636423958c8b8b84604051611fe59493929190613884565b60405180910390a1505050505050505050505050610bbe600160c955565b60006001600160a01b03821661201a575047919050565b6040516370a0823160e01b81523060048201526001600160a01b038316906370a0823190602401602060405180830381865afa15801561205e573d6000803e3d6000fd5b505050506040513d601f19601f82011682018060405250810190610a2a91906136cc565b600080516020613b5483398151915261209a816120e3565b506000918252610162602052604090912055565b60006001600160e01b03198216637965db0b60e01b1480610a2a57506301ffc9a760e01b6001600160e01b0319831614610a2a565b610c9e813361268f565b6040516001600160a01b038316602482015260448101829052610b3f90849063a9059cbb60e01b906064015b60408051601f198184030181529190526020810180516001600160e01b03166001600160e01b0319909316929092179091526126e8565b61215a82826127bd565b6000828152609760205260409020610b3f9082612843565b61217c8282612858565b6000828152609760205260409020610b3f90826128bf565b600080516020613b54833981519152610bbe816120e3565b7f4910fdfa16fed3260ed0e7147f7cc6da11a60208b5b9406d12a635614ffd91435460ff16156121df57610b3f836128d4565b826001600160a01b03166352d1902d6040518163ffffffff1660e01b8152600401602060405180830381865afa925050508015612239575060408051601f3d908101601f19168201909252612236918101906136cc565b60015b61229c5760405162461bcd60e51b815260206004820152602e60248201527f45524331393637557067726164653a206e657720696d706c656d656e7461746960448201526d6f6e206973206e6f74205555505360901b6064820152608401610af6565b600080516020613b0d833981519152811461230b5760405162461bcd60e51b815260206004820152602960248201527f45524331393637557067726164653a20756e737570706f727465642070726f786044820152681a58589b195555525160ba1b6064820152608401610af6565b50610b3f838383612970565b600054610100900460ff1661233e5760405162461bcd60e51b8152600401610af6906138d7565b565b600054610100900460ff166123675760405162461bcd60e51b8152600401610af6906138d7565b61233e61299b565b600061181f83836129c2565b6000610a2a825490565b600260c954036123d75760405162461bcd60e51b815260206004820152601f60248201527f5265656e7472616e637947756172643a207265656e7472616e742063616c6c006044820152606401610af6565b600260c955565b600080600083516041146124345760405162461bcd60e51b815260206004820152601a60248201527f4e6f7420496e76616c6964205369676e617475726520446174610000000000006044820152606401610af6565b5050506020810151604082015160609092015160001a92909190565b612458613217565b610168546101635461249e9133916001600160a01b039091169060649061247f9087613922565b6124899190613939565b610160546001600160a01b03169291906129ec565b606461016354836124af9190613922565b6124b99190613939565b815261016954610164546124e29133916001600160a01b039091169060649061247f9087613922565b606461016454836124f39190613922565b6124fd9190613939565b602082015261016a54610165546125299133916001600160a01b039091169060649061247f9087613922565b6064610165548361253a9190613922565b6125449190613939565b604082015261016654600090612570906064906125619086613922565b61256b9190613939565b612a24565b9050606461016654846125839190613922565b61258d9190613939565b606083015261016e5461016c546125d8916001600160a01b0316906064906125b59085613922565b6125bf9190613939565b61015f5461010090046001600160a01b031691906120ed565b606461016c54826125e99190613922565b6125f39190613939565b608083015261016f5461016d5461261b916001600160a01b0316906064906125b59085613922565b606461016d548261262c9190613922565b6126369190613939565b60a083015261016b54610167546126629133916001600160a01b039091169060649061247f9088613922565b606461016754846126739190613922565b61267d9190613939565b60c083015250919050565b600160c955565b6126998282611826565b610bbe576126a681612cba565b6126b1836020612ccc565b6040516020016126c292919061397f565b60408051601f198184030181529082905262461bcd60e51b8252610af6916004016139f4565b600061273d826040518060400160405280602081526020017f5361666545524332303a206c6f772d6c6576656c2063616c6c206661696c6564815250856001600160a01b0316612e689092919063ffffffff16565b905080516000148061275e57508080602001905181019061275e9190613a27565b610b3f5760405162461bcd60e51b815260206004820152602a60248201527f5361666545524332303a204552433230206f7065726174696f6e20646964206e6044820152691bdd081cdd58d8d9595960b21b6064820152608401610af6565b6127c78282611826565b610bbe5760008281526065602090815260408083206001600160a01b03851684529091529020805460ff191660011790556127ff3390565b6001600160a01b0316816001600160a01b0316837f2f8788117e7eff1d82e926ec794901d17c78024a50270940304540a733656f0d60405160405180910390a45050565b600061181f836001600160a01b038416612e7f565b6128628282611826565b15610bbe5760008281526065602090815260408083206001600160a01b0385168085529252808320805460ff1916905551339285917ff6391f5c32d9c69d2a47ea670b442974b53935d1edc7fd64eb21e047a839171b9190a45050565b600061181f836001600160a01b038416612ece565b6001600160a01b0381163b6129415760405162461bcd60e51b815260206004820152602d60248201527f455243313936373a206e657720696d706c656d656e746174696f6e206973206e60448201526c1bdd08184818dbdb9d1c9858dd609a1b6064820152608401610af6565b600080516020613b0d83398151915280546001600160a01b0319166001600160a01b0392909216919091179055565b61297983612fc1565b6000825111806129865750805b15610b3f576129958383613001565b50505050565b600054610100900460ff166126885760405162461bcd60e51b8152600401610af6906138d7565b60008260000182815481106129d9576129d961377d565b9060005260206000200154905092915050565b6040516001600160a01b03808516602483015283166044820152606481018290526129959085906323b872dd60e01b90608401612119565b60408051600480825260a082019092526000918291906020820160808036833750506101605482519293506001600160a01b031691839150600090612a6b57612a6b61377d565b6001600160a01b0392831660209182029290920181019190915261017054604080516315ab88c960e31b81529051919093169263ad5c46489260048083019391928290030181865afa158015612ac5573d6000803e3d6000fd5b505050506040513d601f19601f82011682018060405250810190612ae99190613a44565b81600181518110612afc57612afc61377d565b6001600160a01b03928316602091820292909201015261016154825191169082906002908110612b2e57612b2e61377d565b6001600160a01b03928316602091820292909201015261015f5482516101009091049091169082906003908110612b6757612b6761377d565b6001600160a01b039283166020918202929092010152610160546101705460405163095ea7b360e01b815290831660048201526024810186905291169063095ea7b3906044016020604051808303816000875af1158015612bcc573d6000803e3d6000fd5b505050506040513d601f19601f82011682018060405250810190612bf09190613a27565b5061015f54600090612c0f9061010090046001600160a01b0316612003565b610170549091506001600160a01b0316635c11d7958560008530612c3542610168613a61565b6040518663ffffffff1660e01b8152600401612c55959493929190613a74565b600060405180830381600087803b158015612c6f57600080fd5b505af1158015612c83573d6000803e3d6000fd5b505061015f5460009250612ca5915061010090046001600160a01b0316612003565b9050612cb18282613ab0565b95945050505050565b6060610a2a6001600160a01b03831660145b60606000612cdb836002613922565b612ce6906002613a61565b67ffffffffffffffff811115612cfe57612cfe6133f5565b6040519080825280601f01601f191660200182016040528015612d28576020820181803683370190505b509050600360fc1b81600081518110612d4357612d4361377d565b60200101906001600160f81b031916908160001a905350600f60fb1b81600181518110612d7257612d7261377d565b60200101906001600160f81b031916908160001a9053506000612d96846002613922565b612da1906001613a61565b90505b6001811115612e19576f181899199a1a9b1b9c1cb0b131b232b360811b85600f1660108110612dd557612dd561377d565b1a60f81b828281518110612deb57612deb61377d565b60200101906001600160f81b031916908160001a90535060049490941c93612e1281613ac3565b9050612da4565b50831561181f5760405162461bcd60e51b815260206004820181905260248201527f537472696e67733a20686578206c656e67746820696e73756666696369656e746044820152606401610af6565b6060612e778484600085613026565b949350505050565b6000818152600183016020526040812054612ec657508154600181810184556000848152602080822090930184905584548482528286019093526040902091909155610a2a565b506000610a2a565b60008181526001830160205260408120548015612fb7576000612ef2600183613ab0565b8554909150600090612f0690600190613ab0565b9050818114612f6b576000866000018281548110612f2657612f2661377d565b9060005260206000200154905080876000018481548110612f4957612f4961377d565b6000918252602080832090910192909255918252600188019052604090208390555b8554869080612f7c57612f7c613ada565b600190038181906000526020600020016000905590558560010160008681526020019081526020016000206000905560019350505050610a2a565b6000915050610a2a565b612fca816128d4565b6040516001600160a01b038216907fbc7cd75a20ee27fd9adebab32041f755214dbc6bffa90cc0225b39da2e5c2d3b90600090a250565b606061181f8383604051806060016040528060278152602001613b2d60279139613101565b6060824710156130875760405162461bcd60e51b815260206004820152602660248201527f416464726573733a20696e73756666696369656e742062616c616e636520666f6044820152651c8818d85b1b60d21b6064820152608401610af6565b600080866001600160a01b031685876040516130a39190613af0565b60006040518083038185875af1925050503d80600081146130e0576040519150601f19603f3d011682016040523d82523d6000602084013e6130e5565b606091505b50915091506130f687838387613179565b979650505050505050565b6060600080856001600160a01b03168560405161311e9190613af0565b600060405180830381855af49150503d8060008114613159576040519150601f19603f3d011682016040523d82523d6000602084013e61315e565b606091505b509150915061316f86838387613179565b9695505050505050565b606083156131e85782516000036131e1576001600160a01b0385163b6131e15760405162461bcd60e51b815260206004820152601d60248201527f416464726573733a2063616c6c20746f206e6f6e2d636f6e74726163740000006044820152606401610af6565b5081612e77565b612e7783838151156131fd5781518083602001fd5b8060405162461bcd60e51b8152600401610af691906139f4565b6040518060e001604052806007906020820280368337509192915050565b60006020828403121561324757600080fd5b81356001600160e01b03198116811461181f57600080fd5b6001600160a01b0381168114610c9e57600080fd5b60008060006060848603121561328957600080fd5b83356132948161325f565b925060208401356132a48161325f565b929592945050506040919091013590565b6000602082840312156132c757600080fd5b5035919050565b600080604083850312156132e157600080fd5b8235915060208301356132f38161325f565b809150509250929050565b60006020828403121561331057600080fd5b813561181f8161325f565b60008083601f84011261332d57600080fd5b50813567ffffffffffffffff81111561334557600080fd5b6020830191508360208260051b850101111561336057600080fd5b9250929050565b60008060006040848603121561337c57600080fd5b83359250602084013567ffffffffffffffff81111561339a57600080fd5b6133a68682870161331b565b9497909650939450505050565b600080602083850312156133c657600080fd5b823567ffffffffffffffff8111156133dd57600080fd5b6133e98582860161331b565b90969095509350505050565b634e487b7160e01b600052604160045260246000fd5b600082601f83011261341c57600080fd5b813567ffffffffffffffff80821115613437576134376133f5565b604051601f8301601f19908116603f0116810190828211818310171561345f5761345f6133f5565b8160405283815286602085880101111561347857600080fd5b836020870160208301376000602085830101528094505050505092915050565b600080604083850312156134ab57600080fd5b82356134b68161325f565b9150602083013567ffffffffffffffff8111156134d257600080fd5b6134de8582860161340b565b9150509250929050565b8015158114610c9e57600080fd5b60006020828403121561350857600080fd5b813561181f816134e8565b600081518084526020808501945080840160005b8381101561354c5781516001600160a01b031687529582019590820190600101613527565b509495945050505050565b60208152600061181f6020830184613513565b600080600080600080600060c0888a03121561358557600080fd5b87356135908161325f565b965060208801356135a08161325f565b955060408801356135b08161325f565b9450606088013567ffffffffffffffff8111156135cc57600080fd5b6135d88a828b0161331b565b90955093505060808801356135ec8161325f565b915060a08801356135fc8161325f565b8091505092959891949750929550565b6000806040838503121561361f57600080fd5b50508035926020909101359150565b6000806040838503121561364157600080fd5b823561364c8161325f565b946020939093013593505050565b6000806020838503121561366d57600080fd5b823567ffffffffffffffff8082111561368557600080fd5b818501915085601f83011261369957600080fd5b8135818111156136a857600080fd5b8660208285010111156136ba57600080fd5b60209290920196919550909350505050565b6000602082840312156136de57600080fd5b5051919050565b6020808252602c908201527f46756e6374696f6e206d7573742062652063616c6c6564207468726f7567682060408201526b19195b1959d85d1958d85b1b60a21b606082015260800190565b6020808252602c908201527f46756e6374696f6e206d7573742062652063616c6c6564207468726f7567682060408201526b6163746976652070726f787960a01b606082015260800190565b634e487b7160e01b600052603260045260246000fd5b634e487b7160e01b600052601160045260246000fd5b6000600182016137bb576137bb613793565b5060010190565b60208082526022908201527f4572726f723a2072657761726441646473206c656e67746820696e636f72726560408201526118dd60f21b606082015260800190565b600080600080600080600060e0888a03121561381f57600080fd5b873561382a8161325f565b96506020880135955060408801359450606088013593506080880135925060a0880135915060c088013567ffffffffffffffff81111561386957600080fd5b6138758a828b0161340b565b91505092959891949750929550565b6001600160a01b0385168152602080820185905260408201849052610140820190606083018460005b60078110156138ca578151835291830191908301906001016138ad565b5050505095945050505050565b6020808252602b908201527f496e697469616c697a61626c653a20636f6e7472616374206973206e6f74206960408201526a6e697469616c697a696e6760a81b606082015260800190565b8082028115828204841417610a2a57610a2a613793565b60008261395657634e487b7160e01b600052601260045260246000fd5b500490565b60005b8381101561397657818101518382015260200161395e565b50506000910152565b7f416363657373436f6e74726f6c3a206163636f756e74200000000000000000008152600083516139b781601785016020880161395b565b7001034b99036b4b9b9b4b733903937b6329607d1b60179184019182015283516139e881602884016020880161395b565b01602801949350505050565b6020815260008251806020840152613a1381604085016020870161395b565b601f01601f19169190910160400192915050565b600060208284031215613a3957600080fd5b815161181f816134e8565b600060208284031215613a5657600080fd5b815161181f8161325f565b80820180821115610a2a57610a2a613793565b85815284602082015260a060408201526000613a9360a0830186613513565b6001600160a01b0394909416606083015250608001529392505050565b81810381811115610a2a57610a2a613793565b600081613ad257613ad2613793565b506000190190565b634e487b7160e01b600052603160045260246000fd5b60008251613b0281846020870161395b565b919091019291505056fe360894a13ba1a3210667c828492db98dca3e2076cc3735a920a3ca505d382bbc416464726573733a206c6f772d6c6576656c2064656c65676174652063616c6c206661696c6564a076a07f65bcd51bcb15a0f01a65bc18f2d922acb81bcfd8af4caf5adb557091a26469706673582212204b5e7683488a20fbffe2258fd3af6077b59bf8fd8a2863b071aac0ba2db7b45864736f6c63430008110033",
  "linkReferences": {},
  "deployedLinkReferences": {}
}