{
  "_format": "hh-sol-artifact-1",
  "contractName": "Union",
  "sourceName": "contracts/Union.sol",
  "abi": [
    {
      "inputs": [],
      "stateMutability": "nonpayable",
      "type": "constructor"
    },
    {
      "anonymous": false,
      "inputs": [
        {
          "indexed": true,
          "internalType": "address",
          "name": "previousOwner",
          "type": "address"
        },
        {
          "indexed": true,
          "internalType": "address",
          "name": "newOwner",
          "type": "address"
        }
      ],
      "name": "OwnershipTransferred",
      "type": "event"
    },
    {
      "inputs": [],
      "name": "APi",
      "outputs": [
        {
          "internalType": "contract IERC20",
          "name": "",
          "type": "address"
        }
      ],
      "stateMutability": "view",
      "type": "function"
    },
    {
      "inputs": [
        {
          "internalType": "address",
          "name": "token",
          "type": "address"
        }
      ],
      "name": "balance",
      "outputs": [
        {
          "internalType": "uint256",
          "name": "",
          "type": "uint256"
        }
      ],
      "stateMutability": "view",
      "type": "function"
    },
    {
      "inputs": [
        {
          "internalType": "address",
          "name": "",
          "type": "address"
        }
      ],
      "name": "bound",
      "outputs": [
        {
          "internalType": "bool",
          "name": "",
          "type": "bool"
        }
      ],
      "stateMutability": "view",
      "type": "function"
    },
    {
      "inputs": [
        {
          "internalType": "address",
          "name": "_referrer",
          "type": "address"
        }
      ],
      "name": "boundReferrer",
      "outputs": [],
      "stateMutability": "nonpayable",
      "type": "function"
    },
    {
      "inputs": [],
      "name": "buyAmountBase",
      "outputs": [
        {
          "internalType": "uint256",
          "name": "",
          "type": "uint256"
        }
      ],
      "stateMutability": "view",
      "type": "function"
    },
    {
      "inputs": [],
      "name": "buyBackAPiCoinRatio",
      "outputs": [
        {
          "internalType": "uint256",
          "name": "",
          "type": "uint256"
        }
      ],
      "stateMutability": "view",
      "type": "function"
    },
    {
      "inputs": [
        {
          "internalType": "uint256",
          "name": "buyAmount",
          "type": "uint256"
        },
        {
          "internalType": "uint256",
          "name": "financialType",
          "type": "uint256"
        }
      ],
      "name": "buyFinancialManagement",
      "outputs": [],
      "stateMutability": "nonpayable",
      "type": "function"
    },
    {
      "inputs": [
        {
          "internalType": "uint256",
          "name": "no",
          "type": "uint256"
        }
      ],
      "name": "cancleFinancial",
      "outputs": [],
      "stateMutability": "nonpayable",
      "type": "function"
    },
    {
      "inputs": [],
      "name": "communityAccount",
      "outputs": [
        {
          "internalType": "address",
          "name": "",
          "type": "address"
        }
      ],
      "stateMutability": "view",
      "type": "function"
    },
    {
      "inputs": [],
      "name": "communityRatio",
      "outputs": [
        {
          "internalType": "uint256",
          "name": "",
          "type": "uint256"
        }
      ],
      "stateMutability": "view",
      "type": "function"
    },
    {
      "inputs": [],
      "name": "contractfinancialInterestRate",
      "outputs": [
        {
          "internalType": "uint256",
          "name": "",
          "type": "uint256"
        }
      ],
      "stateMutability": "view",
      "type": "function"
    },
    {
      "inputs": [],
      "name": "defaultBoundAccount",
      "outputs": [
        {
          "internalType": "address",
          "name": "",
          "type": "address"
        }
      ],
      "stateMutability": "view",
      "type": "function"
    },
    {
      "inputs": [],
      "name": "exitCycle",
      "outputs": [
        {
          "internalType": "uint256",
          "name": "",
          "type": "uint256"
        }
      ],
      "stateMutability": "view",
      "type": "function"
    },
    {
      "inputs": [],
      "name": "exitFee",
      "outputs": [
        {
          "internalType": "uint256",
          "name": "",
          "type": "uint256"
        }
      ],
      "stateMutability": "view",
      "type": "function"
    },
    {
      "inputs": [],
      "name": "exitFeeBase",
      "outputs": [
        {
          "internalType": "uint256",
          "name": "",
          "type": "uint256"
        }
      ],
      "stateMutability": "view",
      "type": "function"
    },
    {
      "inputs": [],
      "name": "exitInterestTimes",
      "outputs": [
        {
          "internalType": "uint256",
          "name": "",
          "type": "uint256"
        }
      ],
      "stateMutability": "view",
      "type": "function"
    },
    {
      "inputs": [
        {
          "internalType": "address",
          "name": "",
          "type": "address"
        },
        {
          "internalType": "uint256",
          "name": "",
          "type": "uint256"
        },
        {
          "internalType": "uint256",
          "name": "",
          "type": "uint256"
        }
      ],
      "name": "financialInfos",
      "outputs": [
        {
          "internalType": "uint256",
          "name": "no",
          "type": "uint256"
        },
        {
          "internalType": "address",
          "name": "owner",
          "type": "address"
        },
        {
          "internalType": "uint256",
          "name": "status",
          "type": "uint256"
        },
        {
          "internalType": "uint256",
          "name": "financialType",
          "type": "uint256"
        },
        {
          "internalType": "uint256",
          "name": "financialAmount",
          "type": "uint256"
        },
        {
          "internalType": "uint256",
          "name": "amountInterest",
          "type": "uint256"
        },
        {
          "internalType": "uint256",
          "name": "withdrawAmount",
          "type": "uint256"
        },
        {
          "internalType": "uint256",
          "name": "startTime",
          "type": "uint256"
        },
        {
          "internalType": "uint256",
          "name": "startDays",
          "type": "uint256"
        },
        {
          "internalType": "uint256",
          "name": "lastWithdrawTime",
          "type": "uint256"
        },
        {
          "internalType": "uint256",
          "name": "cycle",
          "type": "uint256"
        }
      ],
      "stateMutability": "view",
      "type": "function"
    },
    {
      "inputs": [
        {
          "internalType": "address",
          "name": "",
          "type": "address"
        },
        {
          "internalType": "uint256",
          "name": "",
          "type": "uint256"
        }
      ],
      "name": "financialInterestInfos",
      "outputs": [
        {
          "internalType": "uint256",
          "name": "financialType",
          "type": "uint256"
        },
        {
          "internalType": "uint256",
          "name": "investAmount",
          "type": "uint256"
        },
        {
          "internalType": "uint256",
          "name": "exitAmount",
          "type": "uint256"
        },
        {
          "internalType": "uint256",
          "name": "withdrawAmount",
          "type": "uint256"
        },
        {
          "internalType": "uint256",
          "name": "lastWithdrawTime",
          "type": "uint256"
        }
      ],
      "stateMutability": "view",
      "type": "function"
    },
    {
      "inputs": [
        {
          "internalType": "uint256",
          "name": "",
          "type": "uint256"
        }
      ],
      "name": "financialInterestRate",
      "outputs": [
        {
          "internalType": "uint256",
          "name": "",
          "type": "uint256"
        }
      ],
      "stateMutability": "view",
      "type": "function"
    },
    {
      "inputs": [],
      "name": "financialInterestRateBase",
      "outputs": [
        {
          "internalType": "uint256",
          "name": "",
          "type": "uint256"
        }
      ],
      "stateMutability": "view",
      "type": "function"
    },
    {
      "inputs": [],
      "name": "financialManagementCycle",
      "outputs": [
        {
          "internalType": "uint256",
          "name": "",
          "type": "uint256"
        }
      ],
      "stateMutability": "view",
      "type": "function"
    },
    {
      "inputs": [],
      "name": "financialNo",
      "outputs": [
        {
          "internalType": "uint256",
          "name": "",
          "type": "uint256"
        }
      ],
      "stateMutability": "view",
      "type": "function"
    },
    {
      "inputs": [],
      "name": "foundationAccount",
      "outputs": [
        {
          "internalType": "address",
          "name": "",
          "type": "address"
        }
      ],
      "stateMutability": "view",
      "type": "function"
    },
    {
      "inputs": [],
      "name": "foundationRatio",
      "outputs": [
        {
          "internalType": "uint256",
          "name": "",
          "type": "uint256"
        }
      ],
      "stateMutability": "view",
      "type": "function"
    },
    {
      "inputs": [],
      "name": "generationRatioBase",
      "outputs": [
        {
          "internalType": "uint256",
          "name": "",
          "type": "uint256"
        }
      ],
      "stateMutability": "view",
      "type": "function"
    },
    {
      "inputs": [
        {
          "internalType": "uint256",
          "name": "financialType",
          "type": "uint256"
        }
      ],
      "name": "getFinancialInfo",
      "outputs": [
        {
          "components": [
            {
              "internalType": "uint256",
              "name": "financialType",
              "type": "uint256"
            },
            {
              "internalType": "uint256",
              "name": "investAmount",
              "type": "uint256"
            },
            {
              "internalType": "uint256",
              "name": "exitAmount",
              "type": "uint256"
            },
            {
              "internalType": "uint256",
              "name": "withdrawAmount",
              "type": "uint256"
            },
            {
              "internalType": "uint256",
              "name": "pendingAmount",
              "type": "uint256"
            },
            {
              "internalType": "uint256",
              "name": "lastWithdrawTime",
              "type": "uint256"
            },
            {
              "internalType": "uint256",
              "name": "nextWithdrawTime",
              "type": "uint256"
            },
            {
              "internalType": "uint256",
              "name": "financialPendingAmount",
              "type": "uint256"
            },
            {
              "internalType": "uint256",
              "name": "invitePendingAmount",
              "type": "uint256"
            }
          ],
          "internalType": "struct FinancialInfo",
          "name": "financialInfo",
          "type": "tuple"
        }
      ],
      "stateMutability": "view",
      "type": "function"
    },
    {
      "inputs": [
        {
          "internalType": "uint256",
          "name": "financialType",
          "type": "uint256"
        }
      ],
      "name": "getFinancialInfos",
      "outputs": [
        {
          "components": [
            {
              "internalType": "uint256",
              "name": "no",
              "type": "uint256"
            },
            {
              "internalType": "address",
              "name": "owner",
              "type": "address"
            },
            {
              "internalType": "uint256",
              "name": "status",
              "type": "uint256"
            },
            {
              "internalType": "uint256",
              "name": "financialType",
              "type": "uint256"
            },
            {
              "internalType": "uint256",
              "name": "financialAmount",
              "type": "uint256"
            },
            {
              "internalType": "uint256",
              "name": "amountInterest",
              "type": "uint256"
            },
            {
              "internalType": "uint256",
              "name": "withdrawAmount",
              "type": "uint256"
            },
            {
              "internalType": "uint256",
              "name": "startTime",
              "type": "uint256"
            },
            {
              "internalType": "uint256",
              "name": "startDays",
              "type": "uint256"
            },
            {
              "internalType": "uint256",
              "name": "lastWithdrawTime",
              "type": "uint256"
            },
            {
              "internalType": "uint256",
              "name": "cycle",
              "type": "uint256"
            }
          ],
          "internalType": "struct FinancialMath.Financial[]",
          "name": "",
          "type": "tuple[]"
        }
      ],
      "stateMutability": "view",
      "type": "function"
    },
    {
      "inputs": [
        {
          "internalType": "address",
          "name": "account",
          "type": "address"
        },
        {
          "internalType": "uint256",
          "name": "financialType",
          "type": "uint256"
        }
      ],
      "name": "getReferers",
      "outputs": [
        {
          "internalType": "address[]",
          "name": "",
          "type": "address[]"
        },
        {
          "internalType": "uint256[]",
          "name": "",
          "type": "uint256[]"
        }
      ],
      "stateMutability": "view",
      "type": "function"
    },
    {
      "inputs": [
        {
          "internalType": "uint256",
          "name": "usdtAmount",
          "type": "uint256"
        }
      ],
      "name": "getUnionCoinAmount",
      "outputs": [
        {
          "internalType": "uint256",
          "name": "",
          "type": "uint256"
        }
      ],
      "stateMutability": "view",
      "type": "function"
    },
    {
      "inputs": [],
      "name": "initialize",
      "outputs": [],
      "stateMutability": "nonpayable",
      "type": "function"
    },
    {
      "inputs": [
        {
          "internalType": "address",
          "name": "",
          "type": "address"
        },
        {
          "internalType": "uint256",
          "name": "",
          "type": "uint256"
        }
      ],
      "name": "inviteInterestInfos",
      "outputs": [
        {
          "internalType": "uint256",
          "name": "withdrawAmount",
          "type": "uint256"
        },
        {
          "internalType": "uint256",
          "name": "pendingAmount",
          "type": "uint256"
        }
      ],
      "stateMutability": "view",
      "type": "function"
    },
    {
      "inputs": [],
      "name": "isInitialize",
      "outputs": [
        {
          "internalType": "bool",
          "name": "",
          "type": "bool"
        }
      ],
      "stateMutability": "view",
      "type": "function"
    },
    {
      "inputs": [],
      "name": "lastGenerationQuali",
      "outputs": [
        {
          "internalType": "uint256",
          "name": "",
          "type": "uint256"
        }
      ],
      "stateMutability": "view",
      "type": "function"
    },
    {
      "inputs": [],
      "name": "marketAccount",
      "outputs": [
        {
          "internalType": "address",
          "name": "",
          "type": "address"
        }
      ],
      "stateMutability": "view",
      "type": "function"
    },
    {
      "inputs": [],
      "name": "marketRatio",
      "outputs": [
        {
          "internalType": "uint256",
          "name": "",
          "type": "uint256"
        }
      ],
      "stateMutability": "view",
      "type": "function"
    },
    {
      "inputs": [],
      "name": "name",
      "outputs": [
        {
          "internalType": "string",
          "name": "",
          "type": "string"
        }
      ],
      "stateMutability": "view",
      "type": "function"
    },
    {
      "inputs": [
        {
          "internalType": "uint256",
          "name": "",
          "type": "uint256"
        }
      ],
      "name": "nextGenerationRatio",
      "outputs": [
        {
          "internalType": "uint256",
          "name": "",
          "type": "uint256"
        }
      ],
      "stateMutability": "view",
      "type": "function"
    },
    {
      "inputs": [],
      "name": "oneLastGenerationRation",
      "outputs": [
        {
          "internalType": "uint256",
          "name": "",
          "type": "uint256"
        }
      ],
      "stateMutability": "view",
      "type": "function"
    },
    {
      "inputs": [],
      "name": "owner",
      "outputs": [
        {
          "internalType": "address",
          "name": "",
          "type": "address"
        }
      ],
      "stateMutability": "view",
      "type": "function"
    },
    {
      "inputs": [],
      "name": "pancakeRouter",
      "outputs": [
        {
          "internalType": "contract IUniswapV2Router02",
          "name": "",
          "type": "address"
        }
      ],
      "stateMutability": "view",
      "type": "function"
    },
    {
      "inputs": [],
      "name": "ratioBase",
      "outputs": [
        {
          "internalType": "uint256",
          "name": "",
          "type": "uint256"
        }
      ],
      "stateMutability": "view",
      "type": "function"
    },
    {
      "inputs": [
        {
          "internalType": "address",
          "name": "",
          "type": "address"
        }
      ],
      "name": "referrer",
      "outputs": [
        {
          "internalType": "address",
          "name": "",
          "type": "address"
        }
      ],
      "stateMutability": "view",
      "type": "function"
    },
    {
      "inputs": [
        {
          "internalType": "address",
          "name": "",
          "type": "address"
        }
      ],
      "name": "referrers",
      "outputs": [
        {
          "internalType": "address",
          "name": "owner",
          "type": "address"
        }
      ],
      "stateMutability": "view",
      "type": "function"
    },
    {
      "inputs": [],
      "name": "renounceOwnership",
      "outputs": [],
      "stateMutability": "nonpayable",
      "type": "function"
    },
    {
      "inputs": [
        {
          "internalType": "uint256",
          "name": "_rate",
          "type": "uint256"
        }
      ],
      "name": "setContractRate",
      "outputs": [],
      "stateMutability": "nonpayable",
      "type": "function"
    },
    {
      "inputs": [
        {
          "internalType": "uint256",
          "name": "_exitTimes",
          "type": "uint256"
        }
      ],
      "name": "setExitTimes",
      "outputs": [],
      "stateMutability": "nonpayable",
      "type": "function"
    },
    {
      "inputs": [
        {
          "internalType": "uint256",
          "name": "_cycle",
          "type": "uint256"
        },
        {
          "internalType": "uint256",
          "name": "_rate",
          "type": "uint256"
        }
      ],
      "name": "setFinancialInterestRate",
      "outputs": [],
      "stateMutability": "nonpayable",
      "type": "function"
    },
    {
      "inputs": [],
      "name": "symbol",
      "outputs": [
        {
          "internalType": "string",
          "name": "",
          "type": "string"
        }
      ],
      "stateMutability": "view",
      "type": "function"
    },
    {
      "inputs": [],
      "name": "threeLastGenerationRation",
      "outputs": [
        {
          "internalType": "uint256",
          "name": "",
          "type": "uint256"
        }
      ],
      "stateMutability": "view",
      "type": "function"
    },
    {
      "inputs": [
        {
          "internalType": "address",
          "name": "newOwner",
          "type": "address"
        }
      ],
      "name": "transferOwnership",
      "outputs": [],
      "stateMutability": "nonpayable",
      "type": "function"
    },
    {
      "inputs": [],
      "name": "twoLastGenerationRation",
      "outputs": [
        {
          "internalType": "uint256",
          "name": "",
          "type": "uint256"
        }
      ],
      "stateMutability": "view",
      "type": "function"
    },
    {
      "inputs": [],
      "name": "unionAccount",
      "outputs": [
        {
          "internalType": "address",
          "name": "",
          "type": "address"
        }
      ],
      "stateMutability": "view",
      "type": "function"
    },
    {
      "inputs": [],
      "name": "unionCoin",
      "outputs": [
        {
          "internalType": "contract IERC20",
          "name": "",
          "type": "address"
        }
      ],
      "stateMutability": "view",
      "type": "function"
    },
    {
      "inputs": [],
      "name": "unionFactory",
      "outputs": [
        {
          "internalType": "address",
          "name": "",
          "type": "address"
        }
      ],
      "stateMutability": "view",
      "type": "function"
    },
    {
      "inputs": [],
      "name": "unionRatio",
      "outputs": [
        {
          "internalType": "uint256",
          "name": "",
          "type": "uint256"
        }
      ],
      "stateMutability": "view",
      "type": "function"
    },
    {
      "inputs": [],
      "name": "url",
      "outputs": [
        {
          "internalType": "string",
          "name": "",
          "type": "string"
        }
      ],
      "stateMutability": "view",
      "type": "function"
    },
    {
      "inputs": [],
      "name": "usdt",
      "outputs": [
        {
          "internalType": "contract IERC20",
          "name": "",
          "type": "address"
        }
      ],
      "stateMutability": "view",
      "type": "function"
    },
    {
      "inputs": [
        {
          "internalType": "address",
          "name": "token",
          "type": "address"
        },
        {
          "internalType": "address",
          "name": "to",
          "type": "address"
        },
        {
          "internalType": "uint256",
          "name": "amount",
          "type": "uint256"
        }
      ],
      "name": "withdrawErc20",
      "outputs": [],
      "stateMutability": "nonpayable",
      "type": "function"
    },
    {
      "inputs": [],
      "name": "withdrawFee",
      "outputs": [
        {
          "internalType": "uint256",
          "name": "",
          "type": "uint256"
        }
      ],
      "stateMutability": "view",
      "type": "function"
    },
    {
      "inputs": [],
      "name": "withdrawFeeReceiver",
      "outputs": [
        {
          "internalType": "address",
          "name": "",
          "type": "address"
        }
      ],
      "stateMutability": "view",
      "type": "function"
    },
    {
      "inputs": [
        {
          "internalType": "uint256",
          "name": "financialType",
          "type": "uint256"
        }
      ],
      "name": "withdrawFinancialInterest",
      "outputs": [],
      "stateMutability": "nonpayable",
      "type": "function"
    },
    {
      "inputs": [
        {
          "internalType": "uint256",
          "name": "financialType",
          "type": "uint256"
        }
      ],
      "name": "withdrawInviteReward",
      "outputs": [],
      "stateMutability": "nonpayable",
      "type": "function"
    }
  ],
  "bytecode": "0x60808060405234620008b357620000163362000974565b6001805568056bc75e2d631000006007556001600a55605f60125560026013556001601455600160155560016016556064601755600f601d556103e880601f556005602055683635c9adc5dea00000602255601e602355601e602455601e6025558060275560026028556032602955602a556003602b55600a602c55630890357360e41b8152600081600481335afa908115620008b85760008091600093600090600090600093600091620007dd575b5060088054610100600160a81b03191691811b610100600160a81b0316919091179055600980546001600160a01b03199081166001600160a01b039586161790915560068054821692851692909217909155600580549091169190921617905582516001600160401b038111620005d857600454600181811c91168015620007d2575b6020821014620005b757601f81116200076c575b506020601f8211600114620006e25781929394600092620006d6575b50508160011b916000199060031b1c1916176004555b81516001600160401b038111620005d857600354600181811c91168015620006cb575b6020821014620005b757601f811162000665575b50602092601f8211600114620005fa5792819293600092620005ee575b50508160011b916000199060031b1c1916176003555b80516001600160401b038111620005d857600254600181811c91168015620005cd575b6020821014620005b757601f81116200054d575b506020601f8211600114620004e0578192600092620004d4575b50508160011b916000199060031b1c1916176002555b60065462000277906001600160a01b031662000974565b60067f873299c6a6c39b8b92f01922bb622df4a3236ea2876aac2da76f6c092cf7e98f81905560077f8a1ea6ccfdf9f988bdc16303c81231f9b192785454b34880c28e5c30362354c55560087f4bbb14a9b8bdd7baf7e45936eef68b1d3b69ec665e4d3d9f22d086627a2b08805560097f2eca6469c5988648711d819e241e59ec9e94a879e5d491ce337260f9e754141255600a7f86d72ecda2f02015d839a182675ed983893a479e8f4279fb5498fd7244fa5dfe55600b7f3b995de482df97a2c9d456eaddef4a2d8e37e8b7ceaa84df3200ae34890448f355600c7f07e07990268d552e861c3b3b30762ae1d401e128d88dcdc061f5fba57e7ac9f855600d7f8dd77d38164a78ad615ed6f87db5c81e75803d1677bf75ecfbbe3c73b838714155600e7f2fcdb860d99ada637bba31889280ce2d4217586b5da61641dd5742bcbb7aa46a55600f7f4150be2f2e4ca26ea4353f7f6543634639cb7af12002f06e7614303d57e128f955602660205260c87f5db1dfd2ced311e642486f0e890a646498a1bdee1ad9403b0a73141af8a4c4115560647f79d5ac1af4480d65c6dd0b2262174229f09440eb5efcdd43dd5abb89bd013a8b5560327fdab4009b70bebe3d9317b241caffbbddafded4efeb788ba6719fd7230139451655601e7ffdd8e1e1231c265fd0735c191d4cedaf381608a8b25ebb9978f1c24b15a275028190557ffaf82d7a6012086f4c32f4ae79a886b0f75e27d5dd2cabc96b813355e43820528190556000919091527fa5b4ced2a81ab5dd1e4ac120a9c3e9453a5366e062b67a49f234a70350aa118855604051613f5e9081620009bc8239f35b0151905038806200024a565b600260005260206000209060005b601f198416811062000534575060019383601f198116106200051a575b505050811b0160025562000260565b015160001960f88460031b161c191690553880806200050b565b90916020600181928588015181550193019101620004ee565b60026000527f405787fa12a823e0f2b7631cc41b3ba8828b3321ca811111fa75cd3aa3bb5ace601f830160051c81019160208410620005ac575b601f0160051c01905b8181106200059f575062000230565b6000815560010162000590565b909150819062000587565b634e487b7160e01b600052602260045260246000fd5b90607f16906200021c565b634e487b7160e01b600052604160045260246000fd5b015190503880620001e3565b601f19821693600360005260206000209160005b8681106200064c575083600195961062000632575b505050811b01600355620001f9565b015160001960f88460031b161c1916905538808062000623565b919260206001819286850151815501940192016200060e565b60036000527fc2575a0e9e593c00f959f8c92f12db2869c3395a3b0502d05e2516446f71f85b601f830160051c810160208410620006c3575b601f830160051c82018110620006b6575050620001c6565b600081556001016200069e565b50806200069e565b90607f1690620001b2565b01519050388062000179565b600460009081527f8a35acfbc15ff81a39ae7d344fd709f28e8600b4aa8c65c6b64bfe7fe36bd19b9190601f198416905b818110620007535750958360019596971062000739575b505050811b016004556200018f565b015160001960f88460031b161c191690553880806200072a565b9192602060018192868b01518155019401920162000713565b60046000527f8a35acfbc15ff81a39ae7d344fd709f28e8600b4aa8c65c6b64bfe7fe36bd19b601f830160051c810160208410620007ca575b601f830160051c82018110620007bd5750506200015d565b60008155600101620007a5565b5080620007a5565b90607f169062000149565b96505050505050503d806000833e620007f78183620008c4565b81019060e081830312620008b35780516001600160401b039290838111620008b3578162000827918401620008e8565b926020830151818111620008b3578262000843918501620008e8565b916040840151918211620008b3576200085e918401620008e8565b916200086d606082016200095f565b936200087c608083016200095f565b60a08301516001600160a01b0393919290918483168303620008b35760c001519384168403620008b35793949591909238620000c6565b600080fd5b6040513d6000823e3d90fd5b601f909101601f19168101906001600160401b03821190821017620005d857604052565b919080601f84011215620008b3578251906001600160401b038211620005d8576040519160209162000924601f8301601f1916840185620008c4565b818452828287010111620008b35760005b8181106200094b57508260009394955001015290565b858101830151848201840152820162000935565b51906001600160a01b0382168203620008b357565b600080546001600160a01b039283166001600160a01b03198216811783559216907f8be0079c531659141344cd1fd0a4f28419497f9722a3daafe3b4186f6b6457e09080a356fe6080604052600436101561001257600080fd5b600060e08135811c90816302a7ca60146127a6578163051d2fc81461278857816306fdde03146126cd5781630f0dc016146126af5781630f448f9a1461268557816310ece6b814612667578163144d7941146126495781631593dee11461251c57816319b064701461229357816319e367081461226a5781631b0778fc146122415781631d8c6b0914612223578163262b8572146122055781632a29936c146121e75781632ae863c314611e6c5781632cf003c214611e305781632f48ab7d14611e065781633079572014611ddc5781633f1712fa14611db357816345a38b9114611d9557816346086c9a14611c6a57816349daefa314611a825781634a3b68cc14611a465781634ce1de5014611a285781635498a436146119ff57816355dcb43e146119e15781635600f04f14611926578163624aedaf14611908578163626377de146118df5781636284ae41146118c1578163633f1c091461189857816367ac30bc1461187a578163715018a6146118205781637e36bc78146118025781638129fc1c1461163f5781638362a1a2146113155781638da5cb5b146112ee5781638f57797d1461121057816395d89b411461110e578163965410cf146110f0578163a4e53e0f146110c7578163afb8fae714611097578163bd62280f1461106e578163bd832ea914611020578163c21ebd0714610ff7578163c2fa002e14610fd9578163c5c823f414610fba578163d609d54914610cfd578163dddb7fbc14610cdf578163df24805d14610cbc578163e2b83eea14610c9e578163e3d670d714610c72578163e406ebf814610c54578163e941fa7814610c37578163ea29194214610bf8578163eb91da3f14610bc8578163ec983a5b14610520578163f2fde38b1461045a578163f4f6eaad1461038457508063f538f23414610366578063f59054cf146102f55763f63d95ca146102ca57600080fd5b346102f257806003193601126102f2576006546040516001600160a01b039091168152602090f35b80fd5b50346102f25760403660031901126102f25760a0906040906001600160a01b0361031d6128fd565b1681526011602052818120602435825260205220805490600181015490600281015460046003830154920154926040519485526020850152604084015260608301526080820152f35b50346102f257806003193601126102f2576020602554604051908152f35b9050346104565760603660031901126104565761039f6128fd565b906044359260018060a01b0380931681526010602052604081206024358252602052604081209081548510156102f25750610160936103dd91612950565b508054926001820154169160028201549060038301549060048401546005850154600686015491600787015494600888015496600a60098a0154990154996040519b8c5260208c015260408b015260608a0152608089015260a088015260c0870152850152610100840152610120830152610140820152f35b5080fd5b82346102f25760203660031901126102f2576104746128fd565b61047c612982565b6001600160a01b039081169081156104cc57600054826001600160601b0360a01b821617600055167f8be0079c531659141344cd1fd0a4f28419497f9722a3daafe3b4186f6b6457e0600080a380f35b60405162461bcd60e51b815260206004820152602660248201527f4f776e61626c653a206e6577206f776e657220697320746865207a65726f206160448201526564647265737360d01b6064820152608490fd5b90503461045657610530366127da565b909161053a613014565b338452600c60205260ff60408520541615610b835760075461055c8185612e73565b159081610b6d575b5015610b1e57600880546006546012546001600160a01b03918216936105ab93901c909116906105949087612e1d565b926105a3601794855490612e93565b91339061316e565b6105dd60018060a01b0360085460081c166105d36105cb60135488612e1d565b845490612e93565b903090339061316e565b6105f46105ec60135486612e1d565b825490612e93565b6040516106008161285c565b60028152602081016040368237600880548351911c6001600160a01b0316919015610b0a57819052601b54610682916020918591906001600160a01b031661064786612d1f565b5260095460405163095ea7b360e01b81526001600160a01b0390911660048201526024810192909252909283919082908c9082906044820190565b03925af18015610aff57610ad0575b50601b546106a7906001600160a01b0316612a39565b9160018060a01b0360095416610168420192834211610abc5790899291813b15610ab857836107009360405196879586948593635c11d79560e01b8552600485015284602485015260a0604485015260a4840190612913565b90306064840152608483015203925af18015610aad57610a7e575b50601b54869182916001600160a01b03169061073f9061073a83612a39565b61306a565b826040516020810192630852cd8d60e31b84526024820152602481526107648161285c565b51925af1610770612bb5565b81610a4f575b5015610a1657610811906107b360018060a01b0360085460081c1660018060a01b03601854166105a36107ab6014548a612e1d565b855490612e93565b6107de60018060a01b0360085460081c1660018060a01b03601954166105a36107ab6015548a612e1d565b60088054601a546016549190921c6001600160a01b03908116939216916105a3916108099089612e1d565b905490612e93565b3384526010602052604084208285526020526040842090600a54610837602b5486612e1d565b6040519161084483612877565b825233602083015286604083015284606083015285608083015260a08201528560c08201524282820152856101008201524261012082015260016101408201528254600160401b811015610a02578060016108a29201855584612950565b9290926109ee5761014082600a9261094b9695945185556001850160018060a01b036020840151166001600160601b0360a01b82541617905560408201516002860155606082015160038601556080820151600486015560a0820151600586015560c08201516006860155810151600785015561010081015160088501556101208101516009850155015191015533855260106020526040852083865260205260408520612e9d565b338352601160205260408320818452602052604083208181556001810191610974848454613007565b8355610993600283019461098d865491602b5490612e1d565b90613007565b8455600482019142835533865260116020526040862082875260205260408620948186036109c4575b866001805580f35b600494600393875554600187015554600286015501546003840155549101553880808080806109bc565b634e487b7160e01b87526004879052602487fd5b634e487b7160e01b87526041600452602487fd5b60405162461bcd60e51b815260206004820152601160248201527011549493d48e9095549388119052531151607a1b6044820152606490fd5b8051801592508215610a64575b505038610776565b610a779250602080918301019101612ab7565b3880610a5c565b6001600160401b038197929711610a9957604052943861071b565b634e487b7160e01b82526041600452602482fd5b6040513d89823e3d90fd5b8380fd5b634e487b7160e01b8a52601160045260248afd5b610af19060203d602011610af8575b610ae98183612893565b810190612ab7565b5038610691565b503d610adf565b6040513d8a823e3d90fd5b634e487b7160e01b89526032600452602489fd5b60405162461bcd60e51b815260206004820152602160248201527f556e696f6e3a204d7573742062652061206d756c7469706c65206f66203130306044820152605560f81b6064820152608490fd5b60019150610b7b9085612e93565b101538610564565b60405162461bcd60e51b815260206004820152601860248201527f556e696f6e3a206163636f756e74206e6f7420626f756e6400000000000000006044820152606490fd5b82346102f25760203660031901126102f257610bef60018060a01b036005541633146129da565b600435602c5580f35b82346102f25760203660031901126102f25760209060ff906040906001600160a01b03610c236128fd565b168152600c84522054166040519015158152f35b82346102f257806003193601126102f25760208054604051908152f35b82346102f257806003193601126102f2576020601554604051908152f35b82346102f25760203660031901126102f2576020610c96610c916128fd565b612a39565b604051908152f35b82346102f257806003193601126102f2576020600754604051908152f35b82346102f257806003193601126102f257602060ff600854166040519015158152f35b82346102f257806003193601126102f2576020602754604051908152f35b82346102f257602090816003193601126102f257600435610d1c613014565b815b3383526010808552604084209060019182865286526040852054831015610fb257338552808652604085208286528652610d64610d5e8460408820612950565b50612d43565b9184835114610d7f575b505050610d7a90612cfa565b610d1e565b6040830151610f5c573386526011928388526040872082885288526040872092604051610dab816127f5565b84548152838501548a820152610de2600295868101548060408501526004600383015492836060870152015460808095015261306a565b9260a0810192835194610dfb60c084019687519061306a565b11610f1f5761014082015160285410610f16578183015185518d818310610f0d57610e2c610e3492610e3d9461306a565b905490612e1d565b60175490612e93565b15610ec857928b610e978760408e610ea2978c9a97610d7a9f9e9d8f610e79610ebe9f9d9183923388528b528787208988528b52878720612950565b5001550151943382528c81528282209084835252200191825461306a565b90555190519061306a565b933389528952604088209088528852604087200191825461306a565b9055908580610d6e565b60405162461bcd60e51b8152600481018d9052601960248201527f556e696f6e3a2072657475726e20616d6f756e74206c652030000000000000006044820152606490fd5b5050508a610e3d565b82820151610e3d565b60405162461bcd60e51b8152600481018d90526015602482015274556e696f6e3a2063616e206e6f742063616e636c6560581b6044820152606490fd5b60405162461bcd60e51b815260048101889052602860248201527f556e696f6e3a2066696e616e6369616c206d616e6167656d656e7420737461746044820152673ab99032b93937b960c11b6064820152608490fd5b846001805580f35b82346102f25760203660031901126102f2576020610c96600435613332565b82346102f257806003193601126102f2576020601754604051908152f35b82346102f257806003193601126102f2576009546040516001600160a01b039091168152602090f35b82346102f25760403660031901126102f25760409081906001600160a01b036110476128fd565b168152600f6020528181206024358252602052206001815491015482519182526020820152f35b82346102f257806003193601126102f2576021546040516001600160a01b039091168152602090f35b82346102f25760203660031901126102f2576110be60018060a01b036005541633146129da565b600435602b5580f35b82346102f257806003193601126102f257601a546040516001600160a01b039091168152602090f35b82346102f257806003193601126102f2576020601d54604051908152f35b82346102f257806003193601126102f2576040518160035490600182811c91818416938415611206575b60209485851081146111f2578487529081156111d05750600114611177575b6111738561116781890382612893565b604051918291826128b4565b0390f35b929450600383527fc2575a0e9e593c00f959f8c92f12db2869c3395a3b0502d05e2516446f71f85b5b8284106111bd575050508161117393611167928201019385611157565b80548585018701529285019281016111a0565b60ff191686860152505050151560051b82010191506111678161117385611157565b634e487b7160e01b83526022600452602483fd5b92607f1692611138565b82346102f257602090816003193601126102f25733815260108252604081206004358252825261124260408220612dc7565b906040519280840190808552835180925280604086019401925b8281106112695785850386f35b835180518652808301516001600160a01b03168684015260408082015190870152606080820151908701526080808201519087015260a0808201519087015260c080820151908701528781015188870152610100808201519087015261012080820151908701526101409081015190860152610160909401939281019260010161125c565b82346102f257806003193601126102f257546040516001600160a01b039091168152602090f35b82346102f257602080600319360112610456576113306128fd565b338352600c825260ff604084205416611603576001600160a01b0390808216806115ac57505080600b54165b338452600c835260408420926001938460ff19825416179055600d9182825260408620946001600160601b0360a01b9585831687825416179055604051956113a387612841565b33875283870192606084526040880193606085526060890160608152338b52600e938488528960408d209b5116908b5416178a55848a019151918251906001600160401b03938483116115845789906113fc8484612e30565b01908d528c878c8b80842093915b8683106115985750505050505050600295868b019051908151918483116115845789906114378484612e30565b01908d528c878c8b80842093915b86831061157057505050505050506003809a019051805192831161155c57879061146f8484612e30565b01908b52868b20858c5b8481106115485750505050509682975b60048910611495578980f35b8716808a5282865260408a20848a1461152f575b858a14611509575b82808b146114e2575b505089528585528660408a2054169788156114de576114d890612cfa565b97611489565b8980f35b61150291016114f133826130c3565b828c528488528360408d2001613105565b8a826114ba565b61152a8187018760408e61151d33856130c3565b868152888c522001613105565b6114b1565b6115438186018660408e61151d33856130c3565b6114a9565b898c85511694019381840155018690611479565b634e487b7160e01b8c52604160045260248cfd5b855116940193818401550188908b8e611445565b634e487b7160e01b8e52604160045260248efd5b855116940193818401550188908b8e61140a565b8452600c835260ff60408520541661135c5760405162461bcd60e51b815260048101849052601960248201527f556e696f6e3a207265666572726572206e6f7420626f756e64000000000000006044820152606490fd5b60405162461bcd60e51b8152600481018390526014602482015273155b9a5bdb8e88185b1c9958591e48189bdd5b9960621b6044820152606490fd5b9050346104565781600319360112610456576005546001600160a01b03919061166b90831632146129da565b6008549060ff82166117bd5760405163531f53e960e11b8152928184600481335afa9182156117b257859086908796889189918a918b98611713575b505097858094938180948160019d816001600160601b0360a01b9d168d6021541617602155168b601c541617601c551689601b541617601b551687600b541617600b551685601a541617601a55168360195416176019551690601854161760185560ff19161760085580f35b9699509650505050505081813d83116117ab575b6117318183612893565b81010312610ab85760019261174582612a25565b918161175360208301612a25565b918161176160408301612a25565b918161176f60608301612a25565b918161177d60808301612a25565b918161179760c061179060a08501612a25565b9301612a25565b9b9997959391959d505094505093946116a7565b503d611727565b6040513d87823e3d90fd5b60405162461bcd60e51b815260206004820152601960248201527f556e696f6e3a20616c726561647920696e697469616c697a65000000000000006044820152606490fd5b82346102f257806003193601126102f2576020602254604051908152f35b82346102f257806003193601126102f257611839612982565b80546001600160a01b03198116825581906001600160a01b03167f8be0079c531659141344cd1fd0a4f28419497f9722a3daafe3b4186f6b6457e08280a380f35b82346102f257806003193601126102f2576020602c54604051908152f35b82346102f257806003193601126102f2576019546040516001600160a01b039091168152602090f35b82346102f257806003193601126102f2576020602954604051908152f35b82346102f257806003193601126102f257601c546040516001600160a01b039091168152602090f35b82346102f257806003193601126102f2576020601254604051908152f35b82346102f257806003193601126102f2576040518160045490600182811c918184169384156119d7575b60209485851081146111f2578487529081156111d0575060011461197e576111738561116781890382612893565b929450600483527f8a35acfbc15ff81a39ae7d344fd709f28e8600b4aa8c65c6b64bfe7fe36bd19b5b8284106119c4575050508161117393611167928201019385611157565b80548585018701529285019281016119a7565b92607f1692611950565b82346102f257806003193601126102f2576020602a54604051908152f35b82346102f257806003193601126102f257600b546040516001600160a01b039091168152602090f35b82346102f257806003193601126102f2576020601f54604051908152f35b82346102f25760203660031901126102f2576020906001600160a01b039060409082611a706128fd565b168152600e8452205416604051908152f35b82346102f25760208060031936011261045657611b47600435611aa3613014565b338452600f83526040842081855283526040842090611ade84600160405194611acb86612826565b8054865201549301928084521515613077565b815133865260118552604086208287528552611b0260036040882001918254613007565b9055338552600f8452604085208186528452846001604082200155815190338652600f8552604086209086528452611b3f60408620918254613007565b905551613332565b8260018060a01b039182601c54169084611ba3856021541693611b6e610e34845486612e1d565b60405163a9059cbb60e01b8082526001600160a01b039097166004820152602481019190915295869283919082906044820190565b03925af18015611c5f57611c02948694611bdf92611c42575b50601c541691611bda60175491611bd487548461306a565b90612e1d565b612e93565b604051928352336004840152602483015290928391908290879082906044820190565b03925af18015611c3757611c19575b826001805580f35b81611c2f92903d10610af857610ae98183612893565b508180611c11565b6040513d85823e3d90fd5b611c5890863d8811610af857610ae98183612893565b5088611bbc565b6040513d88823e3d90fd5b82346102f25760403660031901126102f257611c846128fd565b9060243560018060a01b038093168252602091600e8352600191611cac836040842001612c89565b93845191611cd2611cbc84612ce3565b93611cca6040519586612893565b808552612ce3565b8383019790601f190136893784865b611d30575b50505080611cff60405196604088526040880190612913565b928684038288015251928381520195925b828110611d1d5785870386f35b8351875295810195928101928401611d10565b908698969291889694959651811015611d88578082611d52611d7a938c612d2f565b511686526011875260408620848752875284604087200154611d74828a612d2f565b52612cfa565b909192969895949395611ce1565b5097959794939294611ce6565b82346102f257806003193601126102f2576020601654604051908152f35b82346102f257806003193601126102f257601b546040516001600160a01b039091168152602090f35b82346102f25760203660031901126102f25760406020916004358152601e83522054604051908152f35b82346102f257806003193601126102f25760088054604051911c6001600160a01b03168152602090f35b82346102f25760203660031901126102f2576020906001600160a01b039060409082611e5a6128fd565b168152600d8452205416604051908152f35b82346102f2576020806003193601126104565760043590611e8b613014565b3383526011808252604084208385528252604084209260405193611eae856127f5565b80548552600194858201548582015260028201549060408101918252608060046003850154946060840195865201549101908152338852600f865260408820848952865260408820868860405192611f0584612826565b805484520154910190815284880361219357611f7b93338a526010885260408a20868b52885260408a2091601d5493601f5460405195611f448761285c565b8652600a8b8701526040860152519451915190519160405195611f6687612841565b86528986015260408501526060840152613736565b915050915b611f8b831515613077565b33865280845260408620828752845260036040872001611fac848254613007565b9055338652808452604086208287528452426004604088200155339086915b60068310612118575b5050509061203d61204292338752600e85526120028660408920018483611ffd60235493612c89565b6131b0565b338752600e8552612021600260408920018483611ffd60245493612c89565b338752600e8552826003604089200191611ffd60245493612c89565b613332565b8360018060a01b039182601c54169084612069856021541693611b6e610e34845486612e1d565b03925af18015610aad576120bc948694612099926120fb5750601c541691611bda60175491611bd487548461306a565b604051928352336004840152602483015290928391908290889082906044820190565b03925af180156120f0576120d2575b5050805580f35b816120e892903d10610af857610ae98183612893565b5082806120cb565b6040513d86823e3d90fd5b61211190863d8811610af857610ae98183612893565b5089611bbc565b6001600160a01b039081168852600d8652604088205416801561218e5786830180841161217a57906121749189526026875261216e61216761215e60408c205489612e1d565b60275490612e93565b8683613274565b92612cfa565b91611fcb565b634e487b7160e01b89526004839052602489fd5b611fd4565b6121de93338a526010885260408a20868b52885260408a2090602c5492601f54945195519151905191604051966121c988612841565b87528a87015260408601526060850152613cde565b91505091611f80565b82346102f257806003193601126102f2576020601454604051908152f35b82346102f257806003193601126102f2576020602454604051908152f35b82346102f257806003193601126102f2576020602b54604051908152f35b82346102f257806003193601126102f2576005546040516001600160a01b039091168152602090f35b82346102f257806003193601126102f2576018546040516001600160a01b039091168152602090f35b82346102f2576020918260031936011261045657600435916040519161012093848401958487106001600160401b038811176125085783949596604052838652808601908482526040870185815260608801868152608089019187835260a08a019388855260c08b01958987528b898101988b8a526124356101009d8e84019d8e5233815260118652604081208382528652604081209360405190612337826127f5565b85548252600186015495888301968752600281015460408401908152608060046003840154936060870194855201549401938452338552600f8a52604085208786528a52604085208a60016040519261238f84612826565b8054845201549101908152600188036124a85761240f9033875260108c52604087208988528c528b61240a60408920601d5492601f54604051946123d28661285c565b8552600a82860152604085015289519487518951915192604051976123f689612841565b885287015260408601526060850152612dc7565b6134b9565b999199989099945b52518952518a52518a528a5280518b52805161012c9384914261306a565b1061247a575090505b895289528a526040519b518c5251908b01525160408a01525160608901525160808801525160a08701525160c086015251908401525190820152f35b61248590514261306a565b8203918211612494575061243e565b634e487b7160e01b81526011600452602490fd5b6124fc9033875260108c52604087208988528c528b604088206124f7602c5491601f54938a519588518a51915192604051986124e38a612841565b895288015260408701526060860152612dc7565b613b0d565b99919998909994612417565b634e487b7160e01b84526041600452602484fd5b82346102f25760603660031901126102f2576125366128fd565b906024356001600160a01b0380821682036126455760443593612557612982565b16604051936370a0823160e01b85523060048601526020948581602481865afa9081156117b2579082918691612610575b50106125d65760405163a9059cbb60e01b958101959095526001600160a01b0392909216602485015260448085019290925290835290916125d3916125ce606483612893565b612acf565b80f35b60405162461bcd60e51b815260048101869052601260248201527111549493d48e925394d551919250d251539560721b6044820152606490fd5b809250878092503d831161263e575b6126298183612893565b8101031261263a5781905187612588565b8480fd5b503d61261f565b8280fd5b82346102f257806003193601126102f2576020602854604051908152f35b82346102f257806003193601126102f2576020600a54604051908152f35b82346102f25760203660031901126102f25760406020916004358152602683522054604051908152f35b82346102f257806003193601126102f2576020601354604051908152f35b82346102f257806003193601126102f2576040518160025490600182811c9181841693841561277e575b60209485851081146111f2578487529081156111d05750600114612725576111738561116781890382612893565b929450600283527f405787fa12a823e0f2b7631cc41b3ba8828b3321ca811111fa75cd3aa3bb5ace5b82841061276b575050508161117393611167928201019385611157565b805485850187015292850192810161274e565b92607f16926126f7565b82346102f257806003193601126102f2576020602354604051908152f35b82346102f2576127b5366127da565b906127cb60018060a01b036005541633146129da565b8252601e602052604082205580f35b60409060031901126127f0576004359060243590565b600080fd5b60a081019081106001600160401b0382111761281057604052565b634e487b7160e01b600052604160045260246000fd5b604081019081106001600160401b0382111761281057604052565b608081019081106001600160401b0382111761281057604052565b606081019081106001600160401b0382111761281057604052565b61016081019081106001600160401b0382111761281057604052565b90601f801991011681019081106001600160401b0382111761281057604052565b6020808252825181830181905290939260005b8281106128e957505060409293506000838284010152601f8019910116010190565b8181018601518482016040015285016128c7565b600435906001600160a01b03821682036127f057565b90815180825260208080930193019160005b828110612933575050505090565b83516001600160a01b031685529381019392810192600101612925565b805482101561296c57600052600b602060002091020190600090565b634e487b7160e01b600052603260045260246000fd5b6000546001600160a01b0316330361299657565b606460405162461bcd60e51b815260206004820152602060248201527f4f776e61626c653a2063616c6c6572206973206e6f7420746865206f776e65726044820152fd5b156129e157565b606460405162461bcd60e51b815260206004820152602060248201527f556e696f6e3a2063616c6c6572206973206e6f742074686520666163746f72796044820152fd5b51906001600160a01b03821682036127f057565b6001600160a01b03168015612ab2576020602491604051928380926370a0823160e01b82523060048301525afa908115612aa657600091612a78575090565b906020823d8211612a9e575b81612a9160209383612893565b810103126102f257505190565b3d9150612a84565b6040513d6000823e3d90fd5b504790565b908160209103126127f0575180151581036127f05790565b604051612b2d916001600160a01b0316612ae882612826565b6000806020958685527f5361666545524332303a206c6f772d6c6576656c2063616c6c206661696c656487860152868151910182855af1612b27612bb5565b91612bf4565b805190828215928315612b9d575b50505015612b465750565b6084906040519062461bcd60e51b82526004820152602a60248201527f5361666545524332303a204552433230206f7065726174696f6e20646964206e6044820152691bdd081cdd58d8d9595960b21b6064820152fd5b612bad9350820181019101612ab7565b388281612b3b565b3d15612bef573d906001600160401b0382116128105760405191612be3601f8201601f191660200184612893565b82523d6000602084013e565b606090565b91929015612c565750815115612c08575090565b3b15612c115790565b60405162461bcd60e51b815260206004820152601d60248201527f416464726573733a2063616c6c20746f206e6f6e2d636f6e74726163740000006044820152606490fd5b825190915015612c695750805190602001fd5b60405162461bcd60e51b8152908190612c8590600483016128b4565b0390fd5b9060405191828154918282526020928383019160005283600020936000905b828210612cc057505050612cbe92500383612893565b565b85546001600160a01b031684526001958601958895509381019390910190612ca8565b6001600160401b0381116128105760051b60200190565b6000198114612d095760010190565b634e487b7160e01b600052601160045260246000fd5b80516001101561296c5760400190565b805182101561296c5760209160051b010190565b90604051612d5081612877565b8254815260018301546001600160a01b03166020820152600283015460408201526003830154606082015260048301546080820152600583015460a0820152600683015460c0820152600783015460e082015260088301546101008201526009830154610120820152600a90920154610140830152565b908154612dd381612ce3565b92612de16040519485612893565b818452600090815260208082208186015b848410612e00575050505050565b600b83600192612e0f85612d43565b815201920193019290612df2565b81810292918115918404141715612d0957565b600160401b821161281057805491808255828110612e4d57505050565b60009182526020822092830192015b828110612e6857505050565b818155600101612e5c565b8115612e7d570690565b634e487b7160e01b600052601260045260246000fd5b8115612e7d570490565b81811461300357815491600160401b8311612810578154838355808410612f82575b506000526020600020906000526020600020906000905b838210612ee35750505050565b806001918403612efe575b600b809101930191019091612ed6565b805484558180850190838060a01b0390830154166001600160601b0360a01b8254161790556002808201549085015560038082015490850155600480820154908501556005808201549085015560068082015490850155600780820154908501556008808201549085015560098082015490850155600a8082015490850155612eee565b600b908082029082820403612d09578482028281048603612d09576000908582526020822092830192015b828110612fbc57505050612ebf565b808285925582600182015582600282015582600382015582600482015582600582015582600682015582600782015582600882015582600982015582600a82015501612fad565b5050565b91908201809211612d0957565b600260015414613025576002600155565b60405162461bcd60e51b815260206004820152601f60248201527f5265656e7472616e637947756172643a207265656e7472616e742063616c6c006044820152606490fd5b91908203918211612d0957565b1561307e57565b60405162461bcd60e51b815260206004820152601a60248201527f556e696f6e3a2070656e64696e6720726577617264206c7420300000000000006044820152606490fd5b805490600160401b821015612810576001820180825582101561296c576000526020600020019060018060a01b03166001600160601b0360a01b825416179055565b818114613003578154916001600160401b038311612810576131278383612e30565b60005260206000209060005260206000208154916000925b84841061314d575050505050565b600191820180546001600160a01b039092168486015593909101929061313f565b6040516323b872dd60e01b60208201526001600160a01b039283166024820152929091166044830152606480830193909352918152612cbe916125ce826127f5565b929060005b845181101561326d57613262906001600160a01b036131d48288612d2f565b5116806000526132316020601181526040806000208760005282528060002091815190613200826127f5565b835482526001840154908201526002830154809282015260806004600385015494856060850152015491015261306a565b613240602254602b5490612e1d565b116132675761325d908461325761215e888a612e1d565b91613274565b612cfa565b6131b5565b50612cfa565b5050505050565b60018060a01b03169060009082825260116020526040928383208284526020528383208451906132a3826127f5565b80548252600181015460208301526132dd876002830154938881019485526003840154906080600460608301968488520154910152613007565b91518092101561330f575b50508252600f602090815283832091835252206001018054909161330b91613007565b9055565b60019492965061330b95939161332691519061306a565b959193819395506132e8565b60408051906133408261285c565b60028252602091828101908236833760018060a01b038060085460081c1682511561296c576133a9935280601c541661337883612d1f565b526009541694835195869163d06ca61f60e01b83526004830152846024830152818060009586956044830190612913565b03915afa9384156134ad578194613419575b50506001835111156133d65750506133d290612d1f565b5190565b60649250519062461bcd60e51b82526004820152601b60248201527f556e696f6e3a204745545f414d4f554e545f4f55545f4552524f5200000000006044820152fd5b909193503d8083833e61342c8183612893565b8101908381830312612645578051906001600160401b038211610ab8570181601f820112156126455780519061346182612ce3565b9361346e87519586612893565b828552858086019360051b8301019384116102f2575084809101915b83831061349d57505050509138806133bb565b825181529181019185910161348a565b509051903d90823e3d90fd5b9192835161012c8101809111612d09574210613726576134e26040850151606086015190613007565b6020850151111561372657600091825b845181101561371c576135058186612d2f565b5160408101516137125761012c6135216101208301514261306a565b04801561370757906000916001915b8183111561356a575b50505061354e5761354990612cfa565b6134f2565b50509091505b60606135638382860151613007565b9301519190565b90919661358761357f89610100850151613007565b875190612e93565b6135a16135998a610100860151613007565b885190612e73565b6136e5575b6135d66135e1916020890151808210156136dd575b50608085015190600052601e60205260406000205490612e1d565b604088015190612e93565b906135f060c084015183613007565b60a0840151809110156136c5575b5061361c826136178d6060604082015191015190613007565b613007565b60208c01518091101561369b57509061363491613007565b9661364d886136178c6060604082015191015190613007565b60208b01518091101561366b575061366490612cfa565b9190613530565b92505050613690929550613685915060408801519061306a565b60608701519061306a565b926001388080613539565b9150935061369094975061098d92506136ba915060408a01519061306a565b60608901519061306a565b6136d691925060c08401519061306a565b90386135fe565b9050386135bb565b60018101809111156135a657634e487b7160e01b600052601160045260246000fd5b505061354990612cfa565b5061354990612cfa565b5050909150613554565b6060909301519283925060009150565b909192835161012c8101809111612d09574210613726576137606040850151606086015190613007565b60208501511115613a5357600091825b815481101561371c57613786610d5e8284612950565b6040810151613a495761012c6137a16101208301514261306a565b04908115613a3e5787600092836001905b828211156137d2575b505050505061354e576137cd90612cfa565b613770565b6001829b96989495979b14613a36575b6137f461357f836101008a0151613007565b90613807613599846101008b0151613007565b613a20575b602087015180831015613a18575b5061384661383b60808a015184600052601e60205260406000205490612e1d565b604089015190612e93565b9a8c6138578d60c08c015190613007565b60a08b0151809110156139d0575b505061387e8c61361760408a015160608b015190613007565b6020880151809110156139845750906136176138a86138a08e6138b995613007565b9d8e93613007565b976060604082015191015190613007565b60208d0151809110156139295750906138d9918382146138e55750612cfa565b8a9296949995936137b2565b600a6138f18d87612950565b506000600282015560068101613908898254613007565b905560088101613919858254613007565b9055426009820155015538613267565b613966959a5061394a919498506139559293969b975060408d01519061306a565b60608c01519061306a565b976139608688612950565b50613ab9565b6001810110612d095761397882613a6c565b600138878180806137bb565b6139c0929c506139b99193969a506139c69495989d99509660606139b06139669960408401519061306a565b9101519061306a565b8092613007565b99613007565b6139608688612950565b613a02939d506139609850906139f96139f18694979360c08e01519061306a565b9e8f90613007565b98899189612950565b6001830194858411612d09578c95928c38613865565b91503861381a565b90945060018501809511612d09578b949061380c565b5060006137e2565b50506137cd90612cfa565b506137cd90612cfa565b929060609250613a6290613a6c565b0151908190600090565b9060005b8254811015613ab45780613a87613a999285612950565b5060028091015415613a9e5750612cfa565b613a70565b600190613aab8387612950565b50015538613267565b509050565b9091600a9260016002840155613ad460068401918254613007565b9055613ae560088301918254613007565b90554260098201550155565b600092600a9260016002840155613ad460068401918254613007565b92909391815161012c90818101809111612d09574210613cce57604090818401928351976020613b43606088019a8b5190613007565b96019586511115613cbc57600092835b8951851015613cae57613b66858b612d2f565b519086820151613ca3578b83613b816101208501514261306a565b048015613c965786611bda87613b9e613ba3946080890151612e1d565b612e1d565b9260c0810160a0613bb5825187613007565b92015180921015613c78575b505082613617613bd5928b51905190613007565b895180911015613c4c575090613bea91613007565b93613bfd856136178d8a51905190613007565b885180911015613c175750613c1190612cfa565b93613b53565b9695505050505050613c39939450613c319250519061306a565b83519061306a565b905b613c46828451613007565b92519190565b9550975050505050613c72949550613c6a915061098d92519061306a565b85519061306a565b90613c3b565b6136179450613bd59291613c8d91519061306a565b93819250613bc1565b505094613c119150612cfa565b94613c119150612cfa565b985050505050505050613c3b565b50505050505091905051908190600090565b5050606001519250829150600090565b8351929461012c9493858101908110612d09574210613f16576040938481018051976020613d12606085019a8b5190613007565b93019283511115613f04576000805b8654821015613ef557613d37610d5e8389612950565b9089820151613ee9578b8b613d516101208501514261306a565b0491898b8415613ed85790613d7388611bda8994613b9e8960808c0151612e1d565b9560c0810160a0613d8582518a613007565b92015180921015613eb0575b50505050613da6846136178951855190613007565b885180911015613e715750839291613dc6613617979695613dd393613007565b9687918951905190613007565b875180911015613e305750600a8392600092613df2613e29968d612950565b5091846002840155613e0960068401918254613007565b9055613e1a60088301918254613007565b90554260098201550155612cfa565b9091613d21565b9195909650613e57929b50613e6c979a50613c3b9950613e669450613e5f9350519061306a565b8a519061306a565b9785612950565b50613af1565b613a6c565b915095613e5f949c50613e6c989b50613eab9a50613e9c929750613e669550613ea49350519061306a565b8b519061306a565b8093613007565b613c3b565b613ecf939750613ec7879392613e6692519061306a565b978892612950565b848a3880613d91565b50509493915050613e299150612cfa565b9291613e299150612cfa565b98505050505092505050613c3b565b50505094935050505051908190600090565b9450505060609150015190819060009056fea2646970667358221220bf28c78b30da4cc538b7830218285328a088ae740176123102a5dc7b84ca760164736f6c63430008110033",
  "linkReferences": {},
  "deployedLinkReferences": {}
}