{
  "_format": "hh-sol-artifact-1",
  "contractName": "RewardDistribute",
  "sourceName": "contracts/RewardDistribute.sol",
  "abi": [
    {
      "inputs": [],
      "stateMutability": "nonpayable",
      "type": "constructor"
    },
    {
      "anonymous": false,
      "inputs": [
        {
          "indexed": false,
          "internalType": "address",
          "name": "previousAdmin",
          "type": "address"
        },
        {
          "indexed": false,
          "internalType": "address",
          "name": "newAdmin",
          "type": "address"
        }
      ],
      "name": "AdminChanged",
      "type": "event"
    },
    {
      "anonymous": false,
      "inputs": [
        {
          "indexed": true,
          "internalType": "address",
          "name": "beacon",
          "type": "address"
        }
      ],
      "name": "BeaconUpgraded",
      "type": "event"
    },
    {
      "anonymous": false,
      "inputs": [
        {
          "indexed": false,
          "internalType": "uint8",
          "name": "version",
          "type": "uint8"
        }
      ],
      "name": "Initialized",
      "type": "event"
    },
    {
      "anonymous": false,
      "inputs": [
        {
          "indexed": true,
          "internalType": "bytes32",
          "name": "role",
          "type": "bytes32"
        },
        {
          "indexed": true,
          "internalType": "bytes32",
          "name": "previousAdminRole",
          "type": "bytes32"
        },
        {
          "indexed": true,
          "internalType": "bytes32",
          "name": "newAdminRole",
          "type": "bytes32"
        }
      ],
      "name": "RoleAdminChanged",
      "type": "event"
    },
    {
      "anonymous": false,
      "inputs": [
        {
          "indexed": true,
          "internalType": "bytes32",
          "name": "role",
          "type": "bytes32"
        },
        {
          "indexed": true,
          "internalType": "address",
          "name": "account",
          "type": "address"
        },
        {
          "indexed": true,
          "internalType": "address",
          "name": "sender",
          "type": "address"
        }
      ],
      "name": "RoleGranted",
      "type": "event"
    },
    {
      "anonymous": false,
      "inputs": [
        {
          "indexed": true,
          "internalType": "bytes32",
          "name": "role",
          "type": "bytes32"
        },
        {
          "indexed": true,
          "internalType": "address",
          "name": "account",
          "type": "address"
        },
        {
          "indexed": true,
          "internalType": "address",
          "name": "sender",
          "type": "address"
        }
      ],
      "name": "RoleRevoked",
      "type": "event"
    },
    {
      "anonymous": false,
      "inputs": [
        {
          "indexed": true,
          "internalType": "address",
          "name": "implementation",
          "type": "address"
        }
      ],
      "name": "Upgraded",
      "type": "event"
    },
    {
      "anonymous": false,
      "inputs": [
        {
          "indexed": true,
          "internalType": "address",
          "name": "caller",
          "type": "address"
        },
        {
          "indexed": true,
          "internalType": "address",
          "name": "token",
          "type": "address"
        },
        {
          "indexed": false,
          "internalType": "uint256",
          "name": "amount",
          "type": "uint256"
        },
        {
          "indexed": false,
          "internalType": "uint256",
          "name": "timestamp",
          "type": "uint256"
        },
        {
          "indexed": false,
          "internalType": "uint256",
          "name": "order",
          "type": "uint256"
        }
      ],
      "name": "WithdrawReward",
      "type": "event"
    },
    {
      "inputs": [],
      "name": "DEFAULT_ADMIN_ROLE",
      "outputs": [
        {
          "internalType": "bytes32",
          "name": "",
          "type": "bytes32"
        }
      ],
      "stateMutability": "view",
      "type": "function"
    },
    {
      "inputs": [],
      "name": "DOMAIN_SEPARATOR",
      "outputs": [
        {
          "internalType": "bytes32",
          "name": "",
          "type": "bytes32"
        }
      ],
      "stateMutability": "view",
      "type": "function"
    },
    {
      "inputs": [],
      "name": "MANAGE_ROLE",
      "outputs": [
        {
          "internalType": "bytes32",
          "name": "",
          "type": "bytes32"
        }
      ],
      "stateMutability": "view",
      "type": "function"
    },
    {
      "inputs": [
        {
          "internalType": "address",
          "name": "token",
          "type": "address"
        }
      ],
      "name": "balance",
      "outputs": [
        {
          "internalType": "uint256",
          "name": "",
          "type": "uint256"
        }
      ],
      "stateMutability": "view",
      "type": "function"
    },
    {
      "inputs": [
        {
          "internalType": "bytes32",
          "name": "role",
          "type": "bytes32"
        },
        {
          "internalType": "address[]",
          "name": "accounts",
          "type": "address[]"
        }
      ],
      "name": "batchGrantRole",
      "outputs": [],
      "stateMutability": "nonpayable",
      "type": "function"
    },
    {
      "inputs": [
        {
          "internalType": "bytes32",
          "name": "role",
          "type": "bytes32"
        },
        {
          "internalType": "address[]",
          "name": "accounts",
          "type": "address[]"
        }
      ],
      "name": "batchRevokeRole",
      "outputs": [],
      "stateMutability": "nonpayable",
      "type": "function"
    },
    {
      "inputs": [],
      "name": "funSwitch",
      "outputs": [
        {
          "internalType": "bool",
          "name": "",
          "type": "bool"
        }
      ],
      "stateMutability": "view",
      "type": "function"
    },
    {
      "inputs": [
        {
          "internalType": "bytes32",
          "name": "role",
          "type": "bytes32"
        }
      ],
      "name": "getRoleAdmin",
      "outputs": [
        {
          "internalType": "bytes32",
          "name": "",
          "type": "bytes32"
        }
      ],
      "stateMutability": "view",
      "type": "function"
    },
    {
      "inputs": [
        {
          "internalType": "bytes32",
          "name": "role",
          "type": "bytes32"
        },
        {
          "internalType": "uint256",
          "name": "index",
          "type": "uint256"
        }
      ],
      "name": "getRoleMember",
      "outputs": [
        {
          "internalType": "address",
          "name": "",
          "type": "address"
        }
      ],
      "stateMutability": "view",
      "type": "function"
    },
    {
      "inputs": [
        {
          "internalType": "bytes32",
          "name": "role",
          "type": "bytes32"
        }
      ],
      "name": "getRoleMemberCount",
      "outputs": [
        {
          "internalType": "uint256",
          "name": "",
          "type": "uint256"
        }
      ],
      "stateMutability": "view",
      "type": "function"
    },
    {
      "inputs": [
        {
          "internalType": "bytes32",
          "name": "role",
          "type": "bytes32"
        },
        {
          "internalType": "address",
          "name": "account",
          "type": "address"
        }
      ],
      "name": "grantRole",
      "outputs": [],
      "stateMutability": "nonpayable",
      "type": "function"
    },
    {
      "inputs": [
        {
          "internalType": "bytes32",
          "name": "role",
          "type": "bytes32"
        },
        {
          "internalType": "address",
          "name": "account",
          "type": "address"
        }
      ],
      "name": "hasRole",
      "outputs": [
        {
          "internalType": "bool",
          "name": "",
          "type": "bool"
        }
      ],
      "stateMutability": "view",
      "type": "function"
    },
    {
      "inputs": [
        {
          "internalType": "address",
          "name": "_signer",
          "type": "address"
        }
      ],
      "name": "initialize",
      "outputs": [],
      "stateMutability": "nonpayable",
      "type": "function"
    },
    {
      "inputs": [
        {
          "internalType": "address",
          "name": "",
          "type": "address"
        }
      ],
      "name": "nonces",
      "outputs": [
        {
          "internalType": "uint256",
          "name": "",
          "type": "uint256"
        }
      ],
      "stateMutability": "view",
      "type": "function"
    },
    {
      "inputs": [],
      "name": "proxiableUUID",
      "outputs": [
        {
          "internalType": "bytes32",
          "name": "",
          "type": "bytes32"
        }
      ],
      "stateMutability": "view",
      "type": "function"
    },
    {
      "inputs": [
        {
          "internalType": "bytes32",
          "name": "role",
          "type": "bytes32"
        }
      ],
      "name": "queryRoles",
      "outputs": [
        {
          "internalType": "address[]",
          "name": "",
          "type": "address[]"
        }
      ],
      "stateMutability": "view",
      "type": "function"
    },
    {
      "inputs": [
        {
          "internalType": "bytes32",
          "name": "role",
          "type": "bytes32"
        },
        {
          "internalType": "address",
          "name": "account",
          "type": "address"
        }
      ],
      "name": "renounceRole",
      "outputs": [],
      "stateMutability": "nonpayable",
      "type": "function"
    },
    {
      "inputs": [
        {
          "internalType": "bytes32",
          "name": "role",
          "type": "bytes32"
        },
        {
          "internalType": "address",
          "name": "account",
          "type": "address"
        }
      ],
      "name": "revokeRole",
      "outputs": [],
      "stateMutability": "nonpayable",
      "type": "function"
    },
    {
      "inputs": [
        {
          "internalType": "bool",
          "name": "_funSwitch",
          "type": "bool"
        }
      ],
      "name": "setFunSwithc",
      "outputs": [],
      "stateMutability": "nonpayable",
      "type": "function"
    },
    {
      "inputs": [
        {
          "internalType": "address",
          "name": "_signer",
          "type": "address"
        }
      ],
      "name": "setSigner",
      "outputs": [],
      "stateMutability": "nonpayable",
      "type": "function"
    },
    {
      "inputs": [],
      "name": "signer",
      "outputs": [
        {
          "internalType": "address",
          "name": "",
          "type": "address"
        }
      ],
      "stateMutability": "view",
      "type": "function"
    },
    {
      "inputs": [
        {
          "internalType": "bytes4",
          "name": "interfaceId",
          "type": "bytes4"
        }
      ],
      "name": "supportsInterface",
      "outputs": [
        {
          "internalType": "bool",
          "name": "",
          "type": "bool"
        }
      ],
      "stateMutability": "view",
      "type": "function"
    },
    {
      "inputs": [
        {
          "internalType": "address",
          "name": "newImplementation",
          "type": "address"
        }
      ],
      "name": "upgradeTo",
      "outputs": [],
      "stateMutability": "nonpayable",
      "type": "function"
    },
    {
      "inputs": [
        {
          "internalType": "address",
          "name": "newImplementation",
          "type": "address"
        },
        {
          "internalType": "bytes",
          "name": "data",
          "type": "bytes"
        }
      ],
      "name": "upgradeToAndCall",
      "outputs": [],
      "stateMutability": "payable",
      "type": "function"
    },
    {
      "inputs": [
        {
          "internalType": "address",
          "name": "to",
          "type": "address"
        },
        {
          "internalType": "uint256",
          "name": "amount",
          "type": "uint256"
        }
      ],
      "name": "withdrawBNB",
      "outputs": [],
      "stateMutability": "nonpayable",
      "type": "function"
    },
    {
      "inputs": [
        {
          "internalType": "address",
          "name": "token",
          "type": "address"
        },
        {
          "internalType": "address",
          "name": "to",
          "type": "address"
        },
        {
          "internalType": "uint256",
          "name": "amount",
          "type": "uint256"
        }
      ],
      "name": "withdrawErc20",
      "outputs": [],
      "stateMutability": "nonpayable",
      "type": "function"
    },
    {
      "inputs": [
        {
          "internalType": "bytes",
          "name": "data",
          "type": "bytes"
        }
      ],
      "name": "withdrawReward",
      "outputs": [],
      "stateMutability": "nonpayable",
      "type": "function"
    }
  ],
  "bytecode": "0x60a0604052306080523480156200001557600080fd5b506200002062000026565b620000e7565b600054610100900460ff1615620000935760405162461bcd60e51b815260206004820152602760248201527f496e697469616c697a61626c653a20636f6e747261637420697320696e697469604482015266616c697a696e6760c81b606482015260840160405180910390fd5b60005460ff90811614620000e5576000805460ff191660ff9081179091556040519081527f7f26b83ff96e1f2b6a682f133852f6798a09c465da95921460cefb38474024989060200160405180910390a15b565b6080516126e86200011f600039600081816106e101528181610721015281816108280152818161086801526108f701526126e86000f3fe60806040526004361061019c5760003560e01c80636763ccbd116100ec578063a217fddf1161008a578063ca15c87311610064578063ca15c873146104c0578063caf97d94146104e0578063d547741f146104fb578063e3d670d71461051b57600080fd5b8063a217fddf1461046b578063a97af1f214610480578063c4d66de8146104a057600080fd5b80637ecebe00116100c65780637ecebe00146103dd5780639010d07c1461040b57806391d148541461042b5780639bc823f11461044b57600080fd5b80636763ccbd1461037d5780636c19e7831461039d5780636f39feec146103bd57600080fd5b806336568abe116101595780634f1ef286116101335780634f1ef2861461030657806352d1902d1461031957806360a4b76a1461032e578063620bb3ca1461035057600080fd5b806336568abe146102a65780633659cfe6146102c657806346b5cb59146102e657600080fd5b806301ffc9a7146101a15780631593dee1146101d6578063238ac933146101f8578063248a9ca3146102315780632f2ff15d1461026f5780633644e5151461028f575b600080fd5b3480156101ad57600080fd5b506101c16101bc366004611f32565b61053b565b60405190151581526020015b60405180910390f35b3480156101e257600080fd5b506101f66101f1366004611f71565b610566565b005b34801561020457600080fd5b5061016154610219906001600160a01b031681565b6040516001600160a01b0390911681526020016101cd565b34801561023d57600080fd5b5061026161024c366004611fb2565b60009081526065602052604090206001015490565b6040519081526020016101cd565b34801561027b57600080fd5b506101f661028a366004611fcb565b61062f565b34801561029b57600080fd5b506102616101605481565b3480156102b257600080fd5b506101f66102c1366004611fcb565b610659565b3480156102d257600080fd5b506101f66102e1366004611ffb565b6106d7565b3480156102f257600080fd5b506101f6610301366004612018565b6107b6565b6101f661031436600461215c565b61081e565b34801561032557600080fd5b506102616108ea565b34801561033a57600080fd5b5061026160008051602061269383398151915281565b34801561035c57600080fd5b5061037061036b366004611fb2565b61099d565b6040516101cd91906121ac565b34801561038957600080fd5b506101f66103983660046121f9565b610a4c565b3480156103a957600080fd5b506101f66103b8366004611ffb565b610e62565b3480156103c957600080fd5b506101f66103d8366004612018565b610e9e565b3480156103e957600080fd5b506102616103f8366004611ffb565b6101626020526000908152604090205481565b34801561041757600080fd5b5061021961042636600461222e565b610f06565b34801561043757600080fd5b506101c1610446366004611fcb565b610f25565b34801561045757600080fd5b506101f661046636600461225e565b610f50565b34801561047757600080fd5b50610261600081565b34801561048c57600080fd5b506101f661049b36600461227b565b610f7d565b3480156104ac57600080fd5b506101f66104bb366004611ffb565b610fed565b3480156104cc57600080fd5b506102616104db366004611fb2565b611225565b3480156104ec57600080fd5b5061015f546101c19060ff1681565b34801561050757600080fd5b506101f6610516366004611fcb565b61123c565b34801561052757600080fd5b50610261610536366004611ffb565b611261565b60006001600160e01b03198216635a05180f60e01b14806105605750610560826112e0565b92915050565b60008051602061269383398151915261057e81611315565b6040516370a0823160e01b81523060048201526000906001600160a01b038616906370a0823190602401602060405180830381865afa1580156105c5573d6000803e3d6000fd5b505050506040513d601f19601f820116820180604052508101906105e991906122a7565b9050828110156106145760405162461bcd60e51b815260040161060b906122c0565b60405180910390fd5b6106286001600160a01b038616858561131f565b5050505050565b60008281526065602052604090206001015461064a81611315565b6106548383611371565b505050565b6001600160a01b03811633146106c95760405162461bcd60e51b815260206004820152602f60248201527f416363657373436f6e74726f6c3a2063616e206f6e6c792072656e6f756e636560448201526e103937b632b9903337b91039b2b63360891b606482015260840161060b565b6106d38282611393565b5050565b6001600160a01b037f000000000000000000000000000000000000000000000000000000000000000016300361071f5760405162461bcd60e51b815260040161060b906122ec565b7f00000000000000000000000000000000000000000000000000000000000000006001600160a01b031661076860008051602061264c833981519152546001600160a01b031690565b6001600160a01b03161461078e5760405162461bcd60e51b815260040161060b90612338565b610797816113b5565b604080516000808252602082019092526107b3918391906113cd565b50565b6000838152606560205260409020600101546107d181611315565b60005b828110156106285761080c858585848181106107f2576107f2612384565b90506020020160208101906108079190611ffb565b611371565b80610816816123b0565b9150506107d4565b6001600160a01b037f00000000000000000000000000000000000000000000000000000000000000001630036108665760405162461bcd60e51b815260040161060b906122ec565b7f00000000000000000000000000000000000000000000000000000000000000006001600160a01b03166108af60008051602061264c833981519152546001600160a01b031690565b6001600160a01b0316146108d55760405162461bcd60e51b815260040161060b90612338565b6108de826113b5565b6106d3828260016113cd565b6000306001600160a01b037f0000000000000000000000000000000000000000000000000000000000000000161461098a5760405162461bcd60e51b815260206004820152603860248201527f555550535570677261646561626c653a206d757374206e6f742062652063616c60448201527f6c6564207468726f7567682064656c656761746563616c6c0000000000000000606482015260840161060b565b5060008051602061264c83398151915290565b606060006109aa83611225565b905060008167ffffffffffffffff8111156109c7576109c7612097565b6040519080825280602002602001820160405280156109f0578160200160208202803683370190505b50905060005b82811015610a4457610a088582610f06565b828281518110610a1a57610a1a612384565b6001600160a01b039092166020928302919091019091015280610a3c816123b0565b9150506109f6565b509392505050565b610a54611538565b61015f5460ff1615610a9e5760405162461bcd60e51b81526020600482015260136024820152724552524f523a204e4f5420534552564943455360681b604482015260640161060b565b600080600080600080600087806020019051810190610abd91906123ed565b9650965096509650965096509650336001600160a01b0316876001600160a01b031614610b215760405162461bcd60e51b815260206004820152601260248201527122a92927a91d24a72b20a624a22faaa9a2a960711b604482015260640161060b565b33600090815261016260205260409020548314610b765760405162461bcd60e51b81526020600482015260136024820152724552524f523a494e56414c49445f4e4f4e434560681b604482015260640161060b565b81421115610bb85760405162461bcd60e51b815260206004820152600f60248201526e11549493d48e88151253514813d555608a1b604482015260640161060b565b6000806000610bc684611591565b925092509250600061016054604051602001610c51907f5065726d6974286164647265737320757365722c6164647265737320746f6b6581527f6e2c75696e74323536206f726465722c75696e7432353620616d6f756e742c7560208201527f696e74323536206e6f6e63652c75696e7432353620646561646c696e652900006040820152605e0190565b60408051808303601f190181528282528051602091820120818401526001600160a01b038f8116848401528e166060840152608083018d905260a083018c905260c083018b905260e08084018b9052825180850390910181526101008401909252815191012061190160f01b6101208301526101228201929092526101428101919091526101620160408051601f1981840301815282825280516020918201206000845290830180835281905260ff8716918301919091526060820185905260808201849052915060019060a0016020604051602081039080840390855afa158015610d41573d6000803e3d6000fd5b5050604051601f190151610161546001600160a01b039081169116149050610da35760405162461bcd60e51b815260206004820152601560248201527411549493d48e9253959053125117d49154555154d5605a1b604482015260640161060b565b33600090815261016260205260408120805491610dbf836123b0565b919050555087610dce8b611261565b1015610dec5760405162461bcd60e51b815260040161060b906122c0565b610e006001600160a01b038b168c8a61131f565b604080518981524260208201529081018a90526001600160a01b038b169033907fbb873e1f721a078dc6666b560c8f8a58540d7f2482138c9ecb84a8f7fa7cf73b9060600160405180910390a350505050505050505050506107b3600160c955565b600080516020612693833981519152610e7a81611315565b5061016180546001600160a01b0319166001600160a01b0392909216919091179055565b600083815260656020526040902060010154610eb981611315565b60005b8281101561062857610ef485858584818110610eda57610eda612384565b9050602002016020810190610eef9190611ffb565b611393565b80610efe816123b0565b915050610ebc565b6000828152609760205260408120610f1e908361160a565b9392505050565b60009182526065602090815260408084206001600160a01b0393909316845291905290205460ff1690565b600080516020612693833981519152610f6881611315565b5061015f805460ff1916911515919091179055565b600080516020612693833981519152610f9581611315565b303182811015610fb75760405162461bcd60e51b815260040161060b906122c0565b6040516001600160a01b0385169084156108fc029085906000818181858888f19350505050158015610628573d6000803e3d6000fd5b600054610100900460ff161580801561100d5750600054600160ff909116105b806110275750303b158015611027575060005460ff166001145b61108a5760405162461bcd60e51b815260206004820152602e60248201527f496e697469616c697a61626c653a20636f6e747261637420697320616c72656160448201526d191e481a5b9a5d1a585b1a5e995960921b606482015260840161060b565b6000805460ff1916600117905580156110ad576000805461ff0019166101001790555b6110b5611616565b6110bd61163f565b6110c5611616565b6110d0600033611371565b6110e860008051602061269383398151915233611371565b61016180546001600160a01b0319166001600160a01b038416179055604080518082018252601081526f5265776172644469737472696275746560801b6020918201528151808301835260018152603160f81b9082015281517f8b73c3c69bb8fe3d512ecc4cf759cc79239f7b179b0ffacaa9a75d522b39400f818301527f3e60812688d67d8f5b1d664a59e5c34d5e0fa42002aad2aef2b31c796853467b818401527fc89efdaa54c0f20c7adf612882df0950f5a951637e0307cdcb4c672f298b8bc660608201524660808201523060a0808301919091528351808303909101815260c090910190925281519101206101605580156106d3576000805461ff0019169055604051600181527f7f26b83ff96e1f2b6a682f133852f6798a09c465da95921460cefb38474024989060200160405180910390a15050565b60008181526097602052604081206105609061166e565b60008281526065602052604090206001015461125781611315565b6106548383611393565b60006001600160a01b038216611278575047919050565b6040516370a0823160e01b81523060048201526001600160a01b038316906370a0823190602401602060405180830381865afa1580156112bc573d6000803e3d6000fd5b505050506040513d601f19601f8201168201806040525081019061056091906122a7565b60006001600160e01b03198216637965db0b60e01b148061056057506301ffc9a760e01b6001600160e01b0319831614610560565b6107b38133611678565b604080516001600160a01b038416602482015260448082018490528251808303909101815260649091019091526020810180516001600160e01b031663a9059cbb60e01b1790526106549084906116d1565b61137b82826117a6565b6000828152609760205260409020610654908261182c565b61139d8282611841565b600082815260976020526040902061065490826118a8565b6000805160206126938339815191526106d381611315565b7f4910fdfa16fed3260ed0e7147f7cc6da11a60208b5b9406d12a635614ffd91435460ff161561140057610654836118bd565b826001600160a01b03166352d1902d6040518163ffffffff1660e01b8152600401602060405180830381865afa92505050801561145a575060408051601f3d908101601f19168201909252611457918101906122a7565b60015b6114bd5760405162461bcd60e51b815260206004820152602e60248201527f45524331393637557067726164653a206e657720696d706c656d656e7461746960448201526d6f6e206973206e6f74205555505360901b606482015260840161060b565b60008051602061264c833981519152811461152c5760405162461bcd60e51b815260206004820152602960248201527f45524331393637557067726164653a20756e737570706f727465642070726f786044820152681a58589b195555525160ba1b606482015260840161060b565b50610654838383611959565b600260c9540361158a5760405162461bcd60e51b815260206004820152601f60248201527f5265656e7472616e637947756172643a207265656e7472616e742063616c6c00604482015260640161060b565b600260c955565b600080600083516041146115e75760405162461bcd60e51b815260206004820152601a60248201527f4e6f7420496e76616c6964205369676e61747572652044617461000000000000604482015260640161060b565b5050506020810151604082015160609092015160001a92909190565b600160c955565b6000610f1e8383611984565b600054610100900460ff1661163d5760405162461bcd60e51b815260040161060b906124b5565b565b600054610100900460ff166116665760405162461bcd60e51b815260040161060b906124b5565b61163d6119ae565b6000610560825490565b6116828282610f25565b6106d35761168f816119d5565b61169a8360206119e7565b6040516020016116ab929190612500565b60408051601f198184030181529082905262461bcd60e51b825261060b91600401612575565b6000611726826040518060400160405280602081526020017f5361666545524332303a206c6f772d6c6576656c2063616c6c206661696c6564815250856001600160a01b0316611b839092919063ffffffff16565b905080516000148061174757508080602001905181019061174791906125a8565b6106545760405162461bcd60e51b815260206004820152602a60248201527f5361666545524332303a204552433230206f7065726174696f6e20646964206e6044820152691bdd081cdd58d8d9595960b21b606482015260840161060b565b6117b08282610f25565b6106d35760008281526065602090815260408083206001600160a01b03851684529091529020805460ff191660011790556117e83390565b6001600160a01b0316816001600160a01b0316837f2f8788117e7eff1d82e926ec794901d17c78024a50270940304540a733656f0d60405160405180910390a45050565b6000610f1e836001600160a01b038416611b9a565b61184b8282610f25565b156106d35760008281526065602090815260408083206001600160a01b0385168085529252808320805460ff1916905551339285917ff6391f5c32d9c69d2a47ea670b442974b53935d1edc7fd64eb21e047a839171b9190a45050565b6000610f1e836001600160a01b038416611be9565b6001600160a01b0381163b61192a5760405162461bcd60e51b815260206004820152602d60248201527f455243313936373a206e657720696d706c656d656e746174696f6e206973206e60448201526c1bdd08184818dbdb9d1c9858dd609a1b606482015260840161060b565b60008051602061264c83398151915280546001600160a01b0319166001600160a01b0392909216919091179055565b61196283611cdc565b60008251118061196f5750805b156106545761197e8383611d1c565b50505050565b600082600001828154811061199b5761199b612384565b9060005260206000200154905092915050565b600054610100900460ff166116035760405162461bcd60e51b815260040161060b906124b5565b60606105606001600160a01b03831660145b606060006119f68360026125c5565b611a019060026125dc565b67ffffffffffffffff811115611a1957611a19612097565b6040519080825280601f01601f191660200182016040528015611a43576020820181803683370190505b509050600360fc1b81600081518110611a5e57611a5e612384565b60200101906001600160f81b031916908160001a905350600f60fb1b81600181518110611a8d57611a8d612384565b60200101906001600160f81b031916908160001a9053506000611ab18460026125c5565b611abc9060016125dc565b90505b6001811115611b34576f181899199a1a9b1b9c1cb0b131b232b360811b85600f1660108110611af057611af0612384565b1a60f81b828281518110611b0657611b06612384565b60200101906001600160f81b031916908160001a90535060049490941c93611b2d816125ef565b9050611abf565b508315610f1e5760405162461bcd60e51b815260206004820181905260248201527f537472696e67733a20686578206c656e67746820696e73756666696369656e74604482015260640161060b565b6060611b928484600085611d41565b949350505050565b6000818152600183016020526040812054611be157508154600181810184556000848152602080822090930184905584548482528286019093526040902091909155610560565b506000610560565b60008181526001830160205260408120548015611cd2576000611c0d600183612606565b8554909150600090611c2190600190612606565b9050818114611c86576000866000018281548110611c4157611c41612384565b9060005260206000200154905080876000018481548110611c6457611c64612384565b6000918252602080832090910192909255918252600188019052604090208390555b8554869080611c9757611c97612619565b600190038181906000526020600020016000905590558560010160008681526020019081526020016000206000905560019350505050610560565b6000915050610560565b611ce5816118bd565b6040516001600160a01b038216907fbc7cd75a20ee27fd9adebab32041f755214dbc6bffa90cc0225b39da2e5c2d3b90600090a250565b6060610f1e838360405180606001604052806027815260200161266c60279139611e1c565b606082471015611da25760405162461bcd60e51b815260206004820152602660248201527f416464726573733a20696e73756666696369656e742062616c616e636520666f6044820152651c8818d85b1b60d21b606482015260840161060b565b600080866001600160a01b03168587604051611dbe919061262f565b60006040518083038185875af1925050503d8060008114611dfb576040519150601f19603f3d011682016040523d82523d6000602084013e611e00565b606091505b5091509150611e1187838387611e94565b979650505050505050565b6060600080856001600160a01b031685604051611e39919061262f565b600060405180830381855af49150503d8060008114611e74576040519150601f19603f3d011682016040523d82523d6000602084013e611e79565b606091505b5091509150611e8a86838387611e94565b9695505050505050565b60608315611f03578251600003611efc576001600160a01b0385163b611efc5760405162461bcd60e51b815260206004820152601d60248201527f416464726573733a2063616c6c20746f206e6f6e2d636f6e7472616374000000604482015260640161060b565b5081611b92565b611b928383815115611f185781518083602001fd5b8060405162461bcd60e51b815260040161060b9190612575565b600060208284031215611f4457600080fd5b81356001600160e01b031981168114610f1e57600080fd5b6001600160a01b03811681146107b357600080fd5b600080600060608486031215611f8657600080fd5b8335611f9181611f5c565b92506020840135611fa181611f5c565b929592945050506040919091013590565b600060208284031215611fc457600080fd5b5035919050565b60008060408385031215611fde57600080fd5b823591506020830135611ff081611f5c565b809150509250929050565b60006020828403121561200d57600080fd5b8135610f1e81611f5c565b60008060006040848603121561202d57600080fd5b83359250602084013567ffffffffffffffff8082111561204c57600080fd5b818601915086601f83011261206057600080fd5b81358181111561206f57600080fd5b8760208260051b850101111561208457600080fd5b6020830194508093505050509250925092565b634e487b7160e01b600052604160045260246000fd5b604051601f8201601f1916810167ffffffffffffffff811182821017156120d6576120d6612097565b604052919050565b600067ffffffffffffffff8211156120f8576120f8612097565b50601f01601f191660200190565b600082601f83011261211757600080fd5b813561212a612125826120de565b6120ad565b81815284602083860101111561213f57600080fd5b816020850160208301376000918101602001919091529392505050565b6000806040838503121561216f57600080fd5b823561217a81611f5c565b9150602083013567ffffffffffffffff81111561219657600080fd5b6121a285828601612106565b9150509250929050565b6020808252825182820181905260009190848201906040850190845b818110156121ed5783516001600160a01b0316835292840192918401916001016121c8565b50909695505050505050565b60006020828403121561220b57600080fd5b813567ffffffffffffffff81111561222257600080fd5b611b9284828501612106565b6000806040838503121561224157600080fd5b50508035926020909101359150565b80151581146107b357600080fd5b60006020828403121561227057600080fd5b8135610f1e81612250565b6000806040838503121561228e57600080fd5b823561229981611f5c565b946020939093013593505050565b6000602082840312156122b957600080fd5b5051919050565b60208082526012908201527111549493d48e925394d551919250d251539560721b604082015260600190565b6020808252602c908201527f46756e6374696f6e206d7573742062652063616c6c6564207468726f7567682060408201526b19195b1959d85d1958d85b1b60a21b606082015260800190565b6020808252602c908201527f46756e6374696f6e206d7573742062652063616c6c6564207468726f7567682060408201526b6163746976652070726f787960a01b606082015260800190565b634e487b7160e01b600052603260045260246000fd5b634e487b7160e01b600052601160045260246000fd5b6000600182016123c2576123c261239a565b5060010190565b60005b838110156123e45781810151838201526020016123cc565b50506000910152565b600080600080600080600060e0888a03121561240857600080fd5b875161241381611f5c565b602089015190975061242481611f5c565b8096505060408801519450606088015193506080880151925060a0880151915060c088015167ffffffffffffffff81111561245e57600080fd5b8801601f81018a1361246f57600080fd5b805161247d612125826120de565b8181528b602083850101111561249257600080fd5b6124a38260208301602086016123c9565b80935050505092959891949750929550565b6020808252602b908201527f496e697469616c697a61626c653a20636f6e7472616374206973206e6f74206960408201526a6e697469616c697a696e6760a81b606082015260800190565b7f416363657373436f6e74726f6c3a206163636f756e74200000000000000000008152600083516125388160178501602088016123c9565b7001034b99036b4b9b9b4b733903937b6329607d1b60179184019182015283516125698160288401602088016123c9565b01602801949350505050565b60208152600082518060208401526125948160408501602087016123c9565b601f01601f19169190910160400192915050565b6000602082840312156125ba57600080fd5b8151610f1e81612250565b80820281158282048414176105605761056061239a565b808201808211156105605761056061239a565b6000816125fe576125fe61239a565b506000190190565b818103818111156105605761056061239a565b634e487b7160e01b600052603160045260246000fd5b600082516126418184602087016123c9565b919091019291505056fe360894a13ba1a3210667c828492db98dca3e2076cc3735a920a3ca505d382bbc416464726573733a206c6f772d6c6576656c2064656c65676174652063616c6c206661696c6564a076a07f65bcd51bcb15a0f01a65bc18f2d922acb81bcfd8af4caf5adb557091a26469706673582212208b233eb25a136545eec2946ed9bd36706c84bda189a5c6fe18048c159ed56f7164736f6c63430008110033",
  "linkReferences": {},
  "deployedLinkReferences": {}
}