{
  "_format": "hh-sol-artifact-1",
  "contractName": "MY",
  "sourceName": "contracts/MY.sol",
  "abi": [
    {
      "inputs": [
        {
          "internalType": "uint256",
          "name": "_maxSupply",
          "type": "uint256"
        },
        {
          "internalType": "address",
          "name": "_receiver",
          "type": "address"
        },
        {
          "internalType": "address",
          "name": "_operator",
          "type": "address"
        },
        {
          "internalType": "address",
          "name": "_usdtAddress",
          "type": "address"
        },
        {
          "internalType": "contract IUniswapV2Router02",
          "name": "_iUniswapV2Router02",
          "type": "address"
        }
      ],
      "stateMutability": "nonpayable",
      "type": "constructor"
    },
    {
      "anonymous": false,
      "inputs": [
        {
          "indexed": true,
          "internalType": "address",
          "name": "owner",
          "type": "address"
        },
        {
          "indexed": true,
          "internalType": "address",
          "name": "spender",
          "type": "address"
        },
        {
          "indexed": false,
          "internalType": "uint256",
          "name": "value",
          "type": "uint256"
        }
      ],
      "name": "Approval",
      "type": "event"
    },
    {
      "anonymous": false,
      "inputs": [
        {
          "indexed": true,
          "internalType": "address",
          "name": "previousOwner",
          "type": "address"
        },
        {
          "indexed": true,
          "internalType": "address",
          "name": "newOwner",
          "type": "address"
        }
      ],
      "name": "OwnershipTransferred",
      "type": "event"
    },
    {
      "anonymous": false,
      "inputs": [
        {
          "indexed": true,
          "internalType": "address",
          "name": "from",
          "type": "address"
        },
        {
          "indexed": true,
          "internalType": "address",
          "name": "to",
          "type": "address"
        },
        {
          "indexed": false,
          "internalType": "uint256",
          "name": "value",
          "type": "uint256"
        }
      ],
      "name": "Transfer",
      "type": "event"
    },
    {
      "inputs": [
        {
          "internalType": "address",
          "name": "owner",
          "type": "address"
        },
        {
          "internalType": "address",
          "name": "spender",
          "type": "address"
        }
      ],
      "name": "allowance",
      "outputs": [
        {
          "internalType": "uint256",
          "name": "",
          "type": "uint256"
        }
      ],
      "stateMutability": "view",
      "type": "function"
    },
    {
      "inputs": [
        {
          "internalType": "address",
          "name": "spender",
          "type": "address"
        },
        {
          "internalType": "uint256",
          "name": "amount",
          "type": "uint256"
        }
      ],
      "name": "approve",
      "outputs": [
        {
          "internalType": "bool",
          "name": "",
          "type": "bool"
        }
      ],
      "stateMutability": "nonpayable",
      "type": "function"
    },
    {
      "inputs": [
        {
          "internalType": "address",
          "name": "account",
          "type": "address"
        }
      ],
      "name": "balanceOf",
      "outputs": [
        {
          "internalType": "uint256",
          "name": "",
          "type": "uint256"
        }
      ],
      "stateMutability": "view",
      "type": "function"
    },
    {
      "inputs": [
        {
          "internalType": "uint256",
          "name": "amount",
          "type": "uint256"
        }
      ],
      "name": "burn",
      "outputs": [],
      "stateMutability": "nonpayable",
      "type": "function"
    },
    {
      "inputs": [
        {
          "internalType": "address",
          "name": "account",
          "type": "address"
        },
        {
          "internalType": "uint256",
          "name": "amount",
          "type": "uint256"
        }
      ],
      "name": "burnFrom",
      "outputs": [],
      "stateMutability": "nonpayable",
      "type": "function"
    },
    {
      "inputs": [],
      "name": "buyFee",
      "outputs": [
        {
          "internalType": "uint256",
          "name": "",
          "type": "uint256"
        }
      ],
      "stateMutability": "view",
      "type": "function"
    },
    {
      "inputs": [],
      "name": "decimals",
      "outputs": [
        {
          "internalType": "uint8",
          "name": "",
          "type": "uint8"
        }
      ],
      "stateMutability": "view",
      "type": "function"
    },
    {
      "inputs": [
        {
          "internalType": "address",
          "name": "spender",
          "type": "address"
        },
        {
          "internalType": "uint256",
          "name": "subtractedValue",
          "type": "uint256"
        }
      ],
      "name": "decreaseAllowance",
      "outputs": [
        {
          "internalType": "bool",
          "name": "",
          "type": "bool"
        }
      ],
      "stateMutability": "nonpayable",
      "type": "function"
    },
    {
      "inputs": [
        {
          "internalType": "address",
          "name": "",
          "type": "address"
        }
      ],
      "name": "excludeFee",
      "outputs": [
        {
          "internalType": "bool",
          "name": "",
          "type": "bool"
        }
      ],
      "stateMutability": "view",
      "type": "function"
    },
    {
      "inputs": [
        {
          "internalType": "address",
          "name": "spender",
          "type": "address"
        },
        {
          "internalType": "uint256",
          "name": "addedValue",
          "type": "uint256"
        }
      ],
      "name": "increaseAllowance",
      "outputs": [
        {
          "internalType": "bool",
          "name": "",
          "type": "bool"
        }
      ],
      "stateMutability": "nonpayable",
      "type": "function"
    },
    {
      "inputs": [],
      "name": "name",
      "outputs": [
        {
          "internalType": "string",
          "name": "",
          "type": "string"
        }
      ],
      "stateMutability": "view",
      "type": "function"
    },
    {
      "inputs": [],
      "name": "operator",
      "outputs": [
        {
          "internalType": "address",
          "name": "",
          "type": "address"
        }
      ],
      "stateMutability": "view",
      "type": "function"
    },
    {
      "inputs": [],
      "name": "owner",
      "outputs": [
        {
          "internalType": "address",
          "name": "",
          "type": "address"
        }
      ],
      "stateMutability": "view",
      "type": "function"
    },
    {
      "inputs": [
        {
          "internalType": "address",
          "name": "",
          "type": "address"
        }
      ],
      "name": "pairs",
      "outputs": [
        {
          "internalType": "bool",
          "name": "",
          "type": "bool"
        }
      ],
      "stateMutability": "view",
      "type": "function"
    },
    {
      "inputs": [],
      "name": "renounceOwnership",
      "outputs": [],
      "stateMutability": "nonpayable",
      "type": "function"
    },
    {
      "inputs": [],
      "name": "sellFee1",
      "outputs": [
        {
          "internalType": "uint256",
          "name": "",
          "type": "uint256"
        }
      ],
      "stateMutability": "view",
      "type": "function"
    },
    {
      "inputs": [],
      "name": "sellFee2",
      "outputs": [
        {
          "internalType": "uint256",
          "name": "",
          "type": "uint256"
        }
      ],
      "stateMutability": "view",
      "type": "function"
    },
    {
      "inputs": [
        {
          "internalType": "uint256",
          "name": "_buyFee",
          "type": "uint256"
        }
      ],
      "name": "setBuyFee",
      "outputs": [],
      "stateMutability": "nonpayable",
      "type": "function"
    },
    {
      "inputs": [
        {
          "internalType": "address",
          "name": "_address",
          "type": "address"
        },
        {
          "internalType": "bool",
          "name": "_state",
          "type": "bool"
        }
      ],
      "name": "setExcludeFee",
      "outputs": [],
      "stateMutability": "nonpayable",
      "type": "function"
    },
    {
      "inputs": [
        {
          "internalType": "address",
          "name": "_operator",
          "type": "address"
        }
      ],
      "name": "setOperator",
      "outputs": [],
      "stateMutability": "nonpayable",
      "type": "function"
    },
    {
      "inputs": [
        {
          "internalType": "address",
          "name": "_pair",
          "type": "address"
        },
        {
          "internalType": "bool",
          "name": "_state",
          "type": "bool"
        }
      ],
      "name": "setPair",
      "outputs": [],
      "stateMutability": "nonpayable",
      "type": "function"
    },
    {
      "inputs": [
        {
          "internalType": "uint256",
          "name": "_sellFee",
          "type": "uint256"
        }
      ],
      "name": "setSellFee1",
      "outputs": [],
      "stateMutability": "nonpayable",
      "type": "function"
    },
    {
      "inputs": [
        {
          "internalType": "uint256",
          "name": "_sellFee",
          "type": "uint256"
        }
      ],
      "name": "setSellFee2",
      "outputs": [],
      "stateMutability": "nonpayable",
      "type": "function"
    },
    {
      "inputs": [],
      "name": "symbol",
      "outputs": [
        {
          "internalType": "string",
          "name": "",
          "type": "string"
        }
      ],
      "stateMutability": "view",
      "type": "function"
    },
    {
      "inputs": [],
      "name": "totalFee",
      "outputs": [
        {
          "internalType": "uint256",
          "name": "",
          "type": "uint256"
        }
      ],
      "stateMutability": "view",
      "type": "function"
    },
    {
      "inputs": [],
      "name": "totalSupply",
      "outputs": [
        {
          "internalType": "uint256",
          "name": "",
          "type": "uint256"
        }
      ],
      "stateMutability": "view",
      "type": "function"
    },
    {
      "inputs": [
        {
          "internalType": "address",
          "name": "to",
          "type": "address"
        },
        {
          "internalType": "uint256",
          "name": "amount",
          "type": "uint256"
        }
      ],
      "name": "transfer",
      "outputs": [
        {
          "internalType": "bool",
          "name": "",
          "type": "bool"
        }
      ],
      "stateMutability": "nonpayable",
      "type": "function"
    },
    {
      "inputs": [
        {
          "internalType": "address",
          "name": "from",
          "type": "address"
        },
        {
          "internalType": "address",
          "name": "to",
          "type": "address"
        },
        {
          "internalType": "uint256",
          "name": "amount",
          "type": "uint256"
        }
      ],
      "name": "transferFrom",
      "outputs": [
        {
          "internalType": "bool",
          "name": "",
          "type": "bool"
        }
      ],
      "stateMutability": "nonpayable",
      "type": "function"
    },
    {
      "inputs": [
        {
          "internalType": "address",
          "name": "newOwner",
          "type": "address"
        }
      ],
      "name": "transferOwnership",
      "outputs": [],
      "stateMutability": "nonpayable",
      "type": "function"
    }
  ],
  "bytecode": "0x60c060405260026080908152614d5960f01b60a052600490620000239082620003dd565b506040805180820190915260028152614d5960f01b60208201526005906200004c9082620003dd565b50606460085560056009556005600a553480156200006957600080fd5b50604051620019dc380380620019dc8339810160408190526200008c91620004c2565b62000097336200021c565b82600c60006101000a8154816001600160a01b0302191690836001600160a01b031602179055506000816001600160a01b031663c45a01556040518163ffffffff1660e01b8152600401602060405180830381865afa158015620000ff573d6000803e3d6000fd5b505050506040513d601f19601f8201168201806040525081019062000125919062000536565b6040516364e329cb60e11b81523060048201526001600160a01b03858116602483015291925060009183169063c9c65396906044016020604051808303816000875af11580156200017a573d6000803e3d6000fd5b505050506040513d601f19601f82011682018060405250810190620001a0919062000536565b6001600160a01b0381811660009081526006602090815260408083208054600160ff199182168117909255948c1684526007909252909120805490921617905590506200020f86620001f0601290565b620001fd90600a62000672565b62000209908a62000683565b6200026c565b50505050505050620006b3565b600080546001600160a01b038381166001600160a01b0319831681178455604051919092169283917f8be0079c531659141344cd1fd0a4f28419497f9722a3daafe3b4186f6b6457e09190a35050565b6001600160a01b038216620002c75760405162461bcd60e51b815260206004820152601f60248201527f45524332303a206d696e7420746f20746865207a65726f206164647265737300604482015260640160405180910390fd5b8060036000828254620002db91906200069d565b90915550506001600160a01b0382166000818152600160209081526040808320805486019055518481527fddf252ad1be2c89b69c2b068fc378daa952ba7f163c4a11628f55a4df523b3ef910160405180910390a35050565b505050565b634e487b7160e01b600052604160045260246000fd5b600181811c908216806200036457607f821691505b6020821081036200038557634e487b7160e01b600052602260045260246000fd5b50919050565b601f8211156200033457600081815260208120601f850160051c81016020861015620003b45750805b601f850160051c820191505b81811015620003d557828155600101620003c0565b505050505050565b81516001600160401b03811115620003f957620003f962000339565b62000411816200040a84546200034f565b846200038b565b602080601f831160018114620004495760008415620004305750858301515b600019600386901b1c1916600185901b178555620003d5565b600085815260208120601f198616915b828110156200047a5788860151825594840194600190910190840162000459565b5085821015620004995787850151600019600388901b60f8161c191681555b5050505050600190811b01905550565b6001600160a01b0381168114620004bf57600080fd5b50565b600080600080600060a08688031215620004db57600080fd5b855194506020860151620004ef81620004a9565b60408701519094506200050281620004a9565b60608701519093506200051581620004a9565b60808701519092506200052881620004a9565b809150509295509295909350565b6000602082840312156200054957600080fd5b81516200055681620004a9565b9392505050565b634e487b7160e01b600052601160045260246000fd5b600181815b80851115620005b45781600019048211156200059857620005986200055d565b80851615620005a657918102915b93841c939080029062000578565b509250929050565b600082620005cd575060016200066c565b81620005dc575060006200066c565b8160018114620005f55760028114620006005762000620565b60019150506200066c565b60ff8411156200061457620006146200055d565b50506001821b6200066c565b5060208310610133831016604e8410600b841016171562000645575081810a6200066c565b62000651838362000573565b80600019048211156200066857620006686200055d565b0290505b92915050565b60006200055660ff841683620005bc565b80820281158282048414176200066c576200066c6200055d565b808201808211156200066c576200066c6200055d565b61131980620006c36000396000f3fe608060405234801561001057600080fd5b50600436106101cf5760003560e01c806370a0823111610104578063a457c2d7116100a2578063dd62ed3e11610071578063dd62ed3e146103c9578063ea8b16fb146103dc578063f2fde38b146103ef578063fe33b3021461040257600080fd5b8063a457c2d71461037d578063a9059cbb14610390578063b1c947f3146103a3578063b3ab15fb146103b657600080fd5b806379cc6790116100de57806379cc67901461033e57806386a22eff146103515780638da5cb5b1461036457806395d89b411461037557600080fd5b806370a08231146102ea578063715018a6146103135780637967d26d1461031b57600080fd5b806323b872dd11610171578063395093511161014b578063395093511461029057806342966c68146102a357806347062402146102b6578063570ca735146102bf57600080fd5b806323b872dd146102655780632956376914610278578063313ce5671461028157600080fd5b80631411ee3c116101ad5780631411ee3c1461022a578063159a52201461023d57806318160ddd146102545780631df4ccfc1461025c57600080fd5b806306fdde03146101d4578063095ea7b3146101f25780630cc835a314610215575b600080fd5b6101dc610425565b6040516101e991906110a1565b60405180910390f35b61020561020036600461110b565b6104b7565b60405190151581526020016101e9565b610228610223366004611135565b6104d1565b005b610228610238366004611135565b6104de565b61024660095481565b6040519081526020016101e9565b600354610246565b610246600b5481565b61020561027336600461114e565b6104eb565b610246600a5481565b604051601281526020016101e9565b61020561029e36600461110b565b61050f565b6102286102b1366004611135565b610531565b61024660085481565b600c546102d2906001600160a01b031681565b6040516001600160a01b0390911681526020016101e9565b6102466102f836600461118a565b6001600160a01b031660009081526001602052604090205490565b61022861053e565b61020561032936600461118a565b60076020526000908152604090205460ff1681565b61022861034c36600461110b565b610552565b61022861035f3660046111a5565b61056b565b6000546001600160a01b03166102d2565b6101dc6105ee565b61020561038b36600461110b565b6105fd565b61020561039e36600461110b565b610678565b6102286103b13660046111a5565b610686565b6102286103c436600461118a565b610704565b6102466103d73660046111e1565b61072e565b6102286103ea366004611135565b610759565b6102286103fd36600461118a565b610766565b61020561041036600461118a565b60066020526000908152604090205460ff1681565b60606004805461043490611214565b80601f016020809104026020016040519081016040528092919081815260200182805461046090611214565b80156104ad5780601f10610482576101008083540402835291602001916104ad565b820191906000526020600020905b81548152906001019060200180831161049057829003601f168201915b5050505050905090565b6000336104c58185856107dc565b60019150505b92915050565b6104d9610901565b600855565b6104e6610901565b600955565b6000336104f985828561095b565b6105048585856109d5565b506001949350505050565b6000336104c5818585610522838361072e565b61052c9190611264565b6107dc565b61053b3382610bcb565b50565b610546610901565b6105506000610ce5565b565b61055d82338361095b565b6105678282610bcb565b5050565b610573610901565b6001600160a01b0382166105c35760405162461bcd60e51b81526020600482015260126024820152714552524f523a5a45524f5f4144445245535360701b60448201526064015b60405180910390fd5b6001600160a01b03919091166000908152600660205260409020805460ff1916911515919091179055565b60606005805461043490611214565b6000338161060b828661072e565b90508381101561066b5760405162461bcd60e51b815260206004820152602560248201527f45524332303a2064656372656173656420616c6c6f77616e63652062656c6f77604482015264207a65726f60d81b60648201526084016105ba565b61050482868684036107dc565b6000336104c58185856109d5565b61068e610901565b6001600160a01b0382166106d95760405162461bcd60e51b81526020600482015260126024820152714552524f523a5a45524f5f4144445245535360701b60448201526064016105ba565b6001600160a01b03919091166000908152600760205260409020805460ff1916911515919091179055565b61070c610901565b600c80546001600160a01b0319166001600160a01b0392909216919091179055565b6001600160a01b03918216600090815260026020908152604080832093909416825291909152205490565b610761610901565b600a55565b61076e610901565b6001600160a01b0381166107d35760405162461bcd60e51b815260206004820152602660248201527f4f776e61626c653a206e6577206f776e657220697320746865207a65726f206160448201526564647265737360d01b60648201526084016105ba565b61053b81610ce5565b6001600160a01b03831661083e5760405162461bcd60e51b8152602060048201526024808201527f45524332303a20617070726f76652066726f6d20746865207a65726f206164646044820152637265737360e01b60648201526084016105ba565b6001600160a01b03821661089f5760405162461bcd60e51b815260206004820152602260248201527f45524332303a20617070726f766520746f20746865207a65726f206164647265604482015261737360f01b60648201526084016105ba565b6001600160a01b0383811660008181526002602090815260408083209487168084529482529182902085905590518481527f8c5be1e5ebec7d5bd14f71427d1e84f3dd0314c0f7b2291e5b200ac8c7c3b92591015b60405180910390a3505050565b6000546001600160a01b031633146105505760405162461bcd60e51b815260206004820181905260248201527f4f776e61626c653a2063616c6c6572206973206e6f7420746865206f776e657260448201526064016105ba565b6000610967848461072e565b905060001981146109cf57818110156109c25760405162461bcd60e51b815260206004820152601d60248201527f45524332303a20696e73756666696369656e7420616c6c6f77616e636500000060448201526064016105ba565b6109cf84848484036107dc565b50505050565b6001600160a01b038316610a395760405162461bcd60e51b815260206004820152602560248201527f45524332303a207472616e736665722066726f6d20746865207a65726f206164604482015264647265737360d81b60648201526084016105ba565b6001600160a01b038216610a9b5760405162461bcd60e51b815260206004820152602360248201527f45524332303a207472616e7366657220746f20746865207a65726f206164647260448201526265737360e81b60648201526084016105ba565b6001600160a01b03831660009081526001602052604090205481811015610b135760405162461bcd60e51b815260206004820152602660248201527f45524332303a207472616e7366657220616d6f756e7420657863656564732062604482015265616c616e636560d01b60648201526084016105ba565b6001600160a01b03841660009081526006602052604081205460ff1680610b5257506001600160a01b03841660009081526006602052604090205460ff165b90508015610bb9576001600160a01b03851660009081526007602052604090205460ff1680610b9957506001600160a01b03841660009081526007602052604090205460ff165b15610bae57610ba9858585610d35565b610bc4565b610ba9858585610dc4565b610bc4858585610d35565b5050505050565b6001600160a01b038216610c2b5760405162461bcd60e51b815260206004820152602160248201527f45524332303a206275726e2066726f6d20746865207a65726f206164647265736044820152607360f81b60648201526084016105ba565b6001600160a01b03821660009081526001602052604090205481811015610c9f5760405162461bcd60e51b815260206004820152602260248201527f45524332303a206275726e20616d6f756e7420657863656564732062616c616e604482015261636560f01b60648201526084016105ba565b6001600160a01b03831660008181526001602090815260408083208686039055600380548790039055518581529192916000805160206112c483398151915291016108f4565b600080546001600160a01b038381166001600160a01b0319831681178455604051919092169283917f8be0079c531659141344cd1fd0a4f28419497f9722a3daafe3b4186f6b6457e09190a35050565b6001600160a01b03831660009081526001602052604081208054839290610d5d908490611277565b90915550506001600160a01b03821660009081526001602052604081208054839290610d8a908490611264565b92505081905550816001600160a01b0316836001600160a01b03166000805160206112c4833981519152836040516108f491815260200190565b6001600160a01b03831660009081526006602052604090205460ff1615610eda576000610e076064610e016008548561107690919063ffffffff16565b90611089565b9050610e138482610bcb565b80600b6000828254610e259190611264565b9091555060009050610e378383611095565b6001600160a01b038616600090815260016020526040812080549293508392909190610e64908490611277565b90915550506001600160a01b03841660009081526001602052604081208054839290610e91908490611264565b92505081905550836001600160a01b0316856001600160a01b03166000805160206112c483398151915283604051610ecb91815260200190565b60405180910390a35050505050565b6000610ef66064610e016009548561107690919063ffffffff16565b9050610f028482610bcb565b80600b6000828254610f149190611264565b9091555060009050610f268383611095565b6001600160a01b038616600090815260016020526040812080549293508392909190610f53908490611277565b925050819055506000610f766064610e01600a548761107690919063ffffffff16565b600c546001600160a01b0316600090815260016020526040812080549293508392909190610fa5908490611264565b9091555050600c546040518281526001600160a01b03918216918816906000805160206112c48339815191529060200160405180910390a380600b6000828254610fef9190611264565b90915550610fff90508282611095565b6001600160a01b03861660009081526001602052604081208054929450849290919061102c908490611264565b92505081905550846001600160a01b0316866001600160a01b03166000805160206112c48339815191528460405161106691815260200190565b60405180910390a3505050505050565b6000611082828461128a565b9392505050565b600061108282846112a1565b60006110828284611277565b600060208083528351808285015260005b818110156110ce578581018301518582016040015282016110b2565b506000604082860101526040601f19601f8301168501019250505092915050565b80356001600160a01b038116811461110657600080fd5b919050565b6000806040838503121561111e57600080fd5b611127836110ef565b946020939093013593505050565b60006020828403121561114757600080fd5b5035919050565b60008060006060848603121561116357600080fd5b61116c846110ef565b925061117a602085016110ef565b9150604084013590509250925092565b60006020828403121561119c57600080fd5b611082826110ef565b600080604083850312156111b857600080fd5b6111c1836110ef565b9150602083013580151581146111d657600080fd5b809150509250929050565b600080604083850312156111f457600080fd5b6111fd836110ef565b915061120b602084016110ef565b90509250929050565b600181811c9082168061122857607f821691505b60208210810361124857634e487b7160e01b600052602260045260246000fd5b50919050565b634e487b7160e01b600052601160045260246000fd5b808201808211156104cb576104cb61124e565b818103818111156104cb576104cb61124e565b80820281158282048414176104cb576104cb61124e565b6000826112be57634e487b7160e01b600052601260045260246000fd5b50049056feddf252ad1be2c89b69c2b068fc378daa952ba7f163c4a11628f55a4df523b3efa264697066735822122037b58bb95e1d85987e5dea76027c3d28b359007afe284fb6e693cb59d1d06c6464736f6c63430008110033",
  "linkReferences": {},
  "deployedLinkReferences": {}
}